:020000040800F2
:10000000F009002029020008B92D00083528000851
:10001000B52D00082104000881350008000000000B
:100020000000000000000000000000008D2F00080C
:100030004904000800000000892F0008912F0008E3
:10004000430200084302000843020008430200087C
:10005000430200084302000843020008430200086C
:10006000430200084302000843020008430200085C
:10007000310400084302000843020008430200085C
:10008000430200084302000843020008430200083C
:100090002504000843020008430200084302000848
:1000A000430200084302000843020008430200081C
:1000B00043020008430200085130000843020008D0
:1000C00043020008430200084302000843020008FC
:1000D00043020008430200084302000843020008EC
:1000E00043020008430200084302000843020008DC
:1000F00043020008430200084302000843020008CC
:1001000043020008430200084302000843020008BB
:1001100043020008430200084302000843020008AB
:10012000430200084302000843020008430200089B
:10013000430200084302000843020008430200088B
:10014000430200084302000843020008430200087B
:1001500043020008430200083D040008430200086F
:10016000430200084302000843020008430200085B
:100170004302000843020008430200080000000098
:10018000430200084302000800F002F800F03CF8C7
:100190000AA090E8000C82448344AAF10107DA45E2
:1001A00001D100F031F8AFF2090EBAE80F0013F0F8
:1001B000010F18BFFB1A43F001031847A8360000CF
:1001C000C8360000103A24BF78C878C1FAD8520760
:1001D00024BF30C830C144BF04680C6070470000C1
:1001E0000023002400250026103A28BF78C1FBD840
:1001F000520728BF30C148BF0B6070471FB503F0DE
:100200000DFB1FBD10B510BD00F0D0F81146FFF773
:10021000F5FF03F0D5F900F0EEF803B4FFF7F2FFB5
:1002200003BC00F0F5F80000094880470948004782
:10023000FEE7FEE7FEE7FEE7FEE7FEE7FEE7FEE796
:10024000FEE7FEE704480549054A064B70470000F3
:100250003D30000889010008F0030020F00900206B
:10026000F0050020F005002053EA020C00F0698040
:100270002DE9F04B4FF00006002B1FBFB3FA83F5BA
:1002800003FA05F424FA05F65E4012BF1643B2FAEB
:1002900082F502FA05F4C5F120051EBF22FA05FC1D
:1002A00044EA0C04203556EA044C4FEA144418BFC3
:1002B000641C4FF000084FF00009904271EB030CF2
:1002C00039D3002919BFB1FA81F701FA07F6B0FA5C
:1002D00080F700FA07F6C7F120071EBF20FA07FCD7
:1002E00046EA0C062037B6FBF4FCA7EB0507103FE7
:1002F00007F01F0BCBF120062CFA06F60CFA0BFBCD
:1003000044BFB3460026202FA4BF5E464FF0000B2B
:100310005BEA060C08BF4FF0010B19EB0B0948EB29
:100320000608ABFB027C06FB02CC0BFB03CCC01B1C
:1003300071EB0C01C1E70B46024641464846BDE859
:10034000F08B13B5084318BF4FF0FF300146AFF3F1
:100350000080BDE81C4070474FF0000200B5134616
:1003600094469646203922BFA0E80C50A0E80C50D5
:10037000B1F12001BFF4F7AF090728BFA0E80C5086
:1003800048BF0CC05DF804EB890028BF40F8042B7F
:1003900008BF704748BF20F8022B11F0804F18BFEC
:1003A00000F8012B7047704770477047754600F0A2
:1003B0002BF8AE4605006946534620F007008546F7
:1003C00018B020B5FFF73EFFBDE820404FF0000613
:1003D0004FF000074FF000084FF0000BAC46ACE8C0
:1003E000C009ACE8C009ACE8C009ACE8C00921F01C
:1003F00007018D46704710B50446AFF300802046D4
:10040000BDE81040FFF709BF004870471800002002
:1004100001491820ABBEFEE726000200704700002D
:10042000FEE7000040F25410C2F2000000F088B96C
:1004300040F2DC10C2F2000000F0C0BB40F27C10C1
:10044000C2F2000000F0BABB7047000072B600BFF5
:10045000FEE7000090F82020013A012A08D8006841
:1004600000F114020020136819431160704700BFA7
:1004700000F1240201204FF4802113681943116018
:100480007047000010B590F820E0D0F800C0AEF141
:10049000010EBEF1010FDCF808E00FD81EF0E05F9E
:1004A00016D0CEF3016E012000FA0EF018608B68B2
:1004B000C3B1486843EAC00316E000BF00F124015D
:1004C00001204FF480220B681A430A6010BD00BF60
:1004D00000F1240101204FF400120B681A430A6056
:1004E00010BD00BF08684305D1E9030403430CEBCA
:1004F0000E10C0F88031C0F88441097D012905D172
:1005000000F5C2710B6843F480730B605168C0F84A
:100510008C11126800F5C071C0F8882100200122FA
:100520000B681A430A6010BDB0B590F82020013A5C
:10053000012A2FD846F20060C4F20000026842F09F
:1005400001020260026822F47C520260D1F814E0D9
:10055000CC694A6A0368012C43EA022202600EF069
:100560001F024FF0010303FA02F2C3696FEA020CA3
:1005700023EA0203C36113D02CBBC36803EA0C0354
:10058000C360CB688C8844EA034300EBCE04236449
:100590000B4611E0416A41F4802141620120B0BD67
:1005A000C3681343C3600B688C8844EA034300EBC1
:1005B000CE04236401F10C038C681B8843EA0443D6
:1005C00000EBCE04636443688D6943EA0204D1F80A
:1005D00010E0096A002D08BF03EA0C044460436977
:1005E000BEF1000F43EA020408BF03EA0C0401292C
:1005F000446102D1C1691143C161016821F0010167
:1006000001600020B0BD00007047000010B590F8F8
:100610002040013C012C7BD8D0F800C0002900F01C
:100620008180DCF81040A40700F081800CEB011CF5
:10063000DCF8B0410CF5D87E14F004049460DCF8CA
:10064000B04119BFE4085460640D1460DEF8004046
:100650000CF5DA7E04F00204D460DCF8B44124071F
:100660005ABFDEF8004004F00F0408241461DEF8DD
:1006700000400029C4F307249461DEF800404FEAEB
:1006800014445461DCF8B8211A70026802EB0112BC
:10069000D2F8B8214FEA12225A70026802EB011216
:1006A000D2F8B8214FEA12429A70026802EB0112A6
:1006B000D2F8B8214FEA1262DA70026802EB011236
:1006C000D2F8BC211A71026802EB0112D2F8BC21E7
:1006D0004FEA12225A71026802EB0112D2F8BC21D1
:1006E0004FEA12429A71026802EB0112D2F8BC2161
:1006F0004FEA1262DA71006814BF00F1100100F1D4
:100700000C01002020220B681A430A6010BD00BFB4
:1007100000F1240101204FF480220B681A430A6083
:1007200010BD00BFDCF80C40A4077FF47FAF00F1E0
:10073000240101204FF400120B681A430A6010BD17
:100740002DE9F04F81B0044600684669D0F8049066
:100750008768D0F80CB0D0F810A0D0F81880F10756
:1007600004D1002530071DD424E000BFF90710D0C4
:100770000121BA07816009D4780700F1AF803807FA
:1007800000F1B680204600F00BFA02E0204600F0AF
:1007900009FA0025F80500F18780F80300F1B1801F
:1007A000300707D51BF0100004D0206845F4007511
:1007B0001021C160700708D51BF0080005D0206823
:1007C0000821C160204600F0A1F9B00706D52068D5
:1007D000C068800702D0204600F09AF9700607D55D
:1007E0001AF0100004D0206845F4806510210161E2
:1007F000B00608D51AF0080005D02068082101616C
:10080000204600F099F9F00606D5206800698007B7
:1008100002D0204600F092F9B00308D519F010007C
:1008200005D0206810214160204600F089F9F003CE
:1008300008D519F0080005D020680821416020463D
:1008400000F0BAF9300440F19B805FEA497040F152
:10085000948006F4807008EA102028435FEA8871CB
:10086000014648BF41F00201B20558BF01465FEAA8
:1008700048700D4648BF45F00405700558BF0D4649
:10088000300540F17A8018F0700000F07680103862
:10089000000905286CD8DFE800F003595D6165693F
:1008A00045F0080564E000BF20684FF48071BA0588
:1008B00081600BD4780515D438051DD4204600F08E
:1008C00073F9F8037FF56CAF1BE000BF204600F022
:1008D0006DF9F8037FF564AF13E000BF4FF40065D6
:1008E00058E700BF05F50055F8037FF559AF08E05C
:1008F0004FF480554EE700BF05F58045F8037FF5BE
:100900004FAF20684FF48031BA0381600AD4780376
:1009100010D4380314D4204600F04AF930073FF5CC
:1009200041AF47E7204600F045F930073FF53AAFC1
:1009300040E700BF05F5004530073FF533AF39E725
:1009400005F5803530073FF52DAF33E745F010054D
:100950000EE000BF45F020050AE000BF45F040056D
:1009600006E000BF45F0800502E000BF45F4807559
:100970002068816921F07001816120680421416053
:1009800055B1606A40EA05012046616201B0BDE8E8
:10099000F04FFFF739BE00BF01B0BDE8F08F000097
:1009A000B0B5C8B1044690F8200010B9204600F058
:1009B00071F82068016841F00101016000F0D2FB8C
:1009C000054600BF20684168C90707D100F0CAFB8F
:1009D000401B0B28F6D312E00120B0BD016821F0C6
:1009E0000201016000F0BEFB054600BF20684168BF
:1009F00089070DD500F0B6FB401B0B28F6D3606AC3
:100A0000052140F400306062012084F82010B0BD60
:100A1000217E0268012922F0800208BF8032026034
:100A2000617E0268012922F0400208BF4032026064
:100A3000A17E0268012922F0200208BF2032026054
:100A4000E17E0268012922F0100218BF1032026014
:100A5000217F0268012922F0080208BF08320260E3
:100A6000617F0268012922F0040208BF043202609B
:100A7000D4E901C2D4E9033561691A432A43114319
:100A8000ACF101021143C16100200121606284F8D0
:100A90002010B0BD80B586B0016846F20040C4F2B7
:100AA0000000814202D006B080BD00BF002143F6A5
:100AB00030020191C4F20202136900F5D43043F010
:100AC00000731361136903F000730193019B01919B
:100AD000136843F0080313601268022302F008024F
:100AE0000192019ACDE9023109210322059101A960
:100AF0000192049200F058FA14200021002200F024
:100B0000B1FB142000F09EFB06B080BD70470000D2
:100B100010B540F27804C2F2000440F2E80204F199
:100B20002003C2F200020021FFF770FD002804BF7D
:100B30000120607010BD0000704700007047000089
:100B400070470000B0B5044690F8200001281DD180
:100B5000022084F820002068016821F00101016072
:100B600000F000FB054600BF20684068C00713D0B6
:100B700000F0F8FA401B0B28F6D3606A40F400300E
:100B80006062052084F820000120B0BD606A40F456
:100B9000002060620120B0BD00206062B0BD000096
:100BA0007047000070470000704700007047000069
:100BB000704700007047000070470000F0B581B03A
:100BC00004460020009040F21000C2F200000268CB
:100BD000D4E9166048F2B51337680821C1F64E33E0
:100BE00081403942A2FB03250CD0226813685B07C1
:100BF00008D5136823F004031360B160616D41F000
:100C00000101616501218140394208D022685269A1
:100C1000120604D5B160616D41F0020161650421E5
:100C20008140394208D022681268920704D5B16029
:100C3000616D41F00401616510218140394217D096
:100C400020680268120713D5B16002680168520378
:100C500008D4C90508D4016821F008010160216C9D
:100C600021B905E0080343D4216C09B12046884727
:100C7000E16D202000FA01F23A4245D02068036875
:100C8000DB0641D5B26094F835300268052B1FD1E0
:100C900022F016020260426922F080024261226C58
:100CA0000AB9A26C1AB1026822F0080202603F2061
:100CB0008840B060012084F83500216D00200029B3
:100CC00084F8340058D02046884701B0F0BD00BFFA
:100CD0000168520310D4C90512D4016821F0100133
:100CE0000160012084F83500002084F8340007E01A
:100CF000A16C0029BAD1BBE7080301D4616C00E004
:100D0000E16B09B120468847606DA8B3606DC007EC
:100D10002ED0052084F835002068A90A026822F048
:100D200001020260009A01328A4200921AD80268D7
:100D3000D20717D0009A01328A42009212D8026874
:100D4000D2070FD0009A01328A4200920AD8026874
:100D5000D20707D0009A01328A42009202D8026874
:100D6000D207DFD1012084F83500002084F8340058
:100D7000E16C09B12046884701B0F0BD2DE9F04192
:100D8000044600F0EFF9002C4ED00546022084F80E
:100D900035000020216884F83400086820F0010044
:100DA00008600868C00708D000F0DCF9401B05287F
:100DB0006CD821680868C007F6D1086848F23F027D
:100DC000CFF21002D4E90135024004F10C0E9EE886
:100DD000C1511A432A4310433043384340EA0800C4
:100DE000626A40EA0C00042A40EA0E0320D1D4E9EA
:100DF0000A5E206B4EEA0302104308604869BEF1A8
:100E0000000F20F0030040EA050040F0040C15D06C
:100E1000B8F5005F42D0B8F1000F51D1022D52D089
:100E2000012D47D055B94EE00120BDE8F08100BF4B
:100E30000B60486920F0070040EA020C6FF00F00D9
:100E40004AF6AB2250FA81F0CAF6AA22A0FB02238E
:100E50001A0943F65C03C0F600039A5C40F2FF33C4
:100E60005F284FF03F00C1F814C021EA030100FAE7
:100E700002F088BF0431C4E9161288600023012201
:100E80000020636584F83520BDE8F081032220232B
:100E90000320636584F83520BDE8F081032DCDD8AB
:100EA000012240230120DFE805F0030E030500BF07
:100EB000E7E700BFAEF1C070B0FA80F0400904E08F
:100EC000032D04D3BAD1CEF300600028B6D001229E
:100ED00040230120636584F83520BDE8F0810000DF
:100EE00070B590F834C0BCF1010F46D04FF0010C42
:100EF00080F834C0D0F858E090F835C0BCF1010F4C
:100F000038D14FF0020C80F835C04FF0000CC0F81B
:100F100054C0D0F800C08468056CC06DDCF8006077
:100F2000402C26F48026CCF80060CCF804300B4628
:100F300004BF13460A463F2101FA00F0CCF80830FE
:100F4000CCF80C20CEF80800DCF8000040F01600C9
:100F5000CCF800002DB1DCF8000040F00800CCF81F
:100F60000000DCF8000040F00100CCF80000002098
:100F700070BD00BF002180F83410022070BD000059
:100F8000B0B5044600F0EEF8054640F20800C2F2A3
:100F900000000078611C18BF044400BF00F0E2F8B4
:100FA000401BA042FAD3B0BD2DE9F04F82B000F152
:100FB0003E4241F6004502F1FF77C4F202050822E5
:100FC0004FEAB726A84208BF0722072E38BF4FEACC
:100FD000B7224FF0010A002400274FF000080092CA
:100FE00008E000BF023708F10108202F04F10404D3
:100FF00000F0B4800E680AFA08F916EA090FF1D079
:10100000D1F804A00AF0030BABF10106012E17D8AA
:101010000322866802FA07FECA6826EA0E06BA406C
:10102000324382604268CAF3001522EA090205FAD7
:1010300008F54FEA480C6FEA0E062A4342600BE0BF
:101040000322BA40D643BBF1030FBC4604D1BC46D1
:101050004FF0030B22E000BFC2688D68324005FAF2
:101060000CF52A43BBF1020FC26017D16FF00302E7
:1010700002EA5802024404F01C030F25D2F820E0D3
:1010800005FA03FA0D692EEA0A0E05FA03F343EA9C
:101090000E031362D1F804A00AF0030B02680BFAE6
:1010A0000CF332401A431AF4403F4FF0010A026039
:1010B00098D0002243F644030192C4F202031A6856
:1010C00043F6004E42F480421A601A68C4F2010EE0
:1010D00002F480420192019A28F003024FF6084C74
:1010E0007244CFF6FF7C52F80C3004F00C060F254A
:1010F000B540AB43009D05FA06F6334342F80C3089
:10110000DEF808204B6842EA090643F60C4CDD0283
:1011100058BF22EA0906CEF80860C4F2010CDCF8D8
:1011200000209D0242EA090658BF22EA0906CCF8CF
:101130000060DEF804209D0342EA090658BF22EA57
:101140000906CEF80460DEF80020DB0342EA090657
:1011500058BF22EA0906CEF8006043E702B0BDE8B6
:10116000F08F000040F2EC30C2F2000000687047DF
:1011700040F2080040F2EC31C2F20000C2F200017D
:1011800000780A68104408607047000080B543F694
:101190000040C4F20200016841F40071016001687E
:1011A00041F480610160016841F4807101600320B5
:1011B00000F084F80F2000F005F800F027F8002078
:1011C00080BD000070B540F20806C2F2000640F291
:1011D00010013278C2F200014FF47A730968B3FB50
:1011E000F2F20446B1FBF2F1084600F041FB0F2C8D
:1011F0004FF0010508D838B94FF0FF3021460022E2
:10120000002500F02FF87460284670BD82B00020E1
:1012100043F640010190C4F202014A6842F4804260
:101220004A604A6802F480420192019A009008687C
:1012300040F080500860086800F0805000900098EE
:1012400002B07047002848BF704700F01F0101221C
:1012500002FA01F14EF200124009CEF2000242F809
:101260002010704710B54EF60C5CCEF2000CDCF886
:101270000030C3F3022E8EF00704042C28BF042490
:10128000BEF103034FF0FF3E0EFA04F438BF002313
:10129000A14399400EFA03F39A4300F00F03043B75
:1012A0001143634409010C3300F16042B0F1FF3F88
:1012B000C8BF02F56443197010BD00004EF60C5112
:1012C000CEF200010A684FF6FF031A4060F30A22CB
:1012D00042F0806040F0FD70086070472DE9F041F9
:1012E000002800F08B8043F60808C4F20208044688
:1012F000D8F8F8030D4600F00700884207D288F8B6
:10130000F853D8F8F80300F00700A84276D1206817
:10131000810717D5410705D5D8F8001041F4E051F1
:10132000C8F80010010705D5D8F8001041F4604155
:10133000C8F80010D8F80010A26821F0F00111439D
:10134000C8F80010C0073FD1D8F8F80300F0070034
:10135000A84207D988F8F853D8F8F80300F0070036
:10136000A8424BD12068410707D5D8F80010E268A1
:1013700021F4E0511143C8F80010000708D5D8F84F
:101380000000216920F4604040EAC100C8F8000074
:1013900000F07CF8D8F8001043F63602C1F30311D0
:1013A000C0F60002515C40F2100220FA01F140F256
:1013B0000C00C2F200000068C2F200021160FFF7E8
:1013C00001FF0020BDE8F0816068811E022907D27C
:1013D00058F8081C89015CBF0120BDE8F08111E0CC
:1013E000012807D158F8081C89035CBF0120BDE81B
:1013F000F08107E058F8081C890703D40120BDE8F4
:10140000F08100BFD8F8001021F003010843C8F8AC
:101410000000FFF7A7FE064641F28837D8F8000023
:10142000616800F00C00B0EB810F8DD0FFF79AFEE1
:10143000801BB842F2D90320BDE8F08140F21000D1
:1014400043F60801C2F20000C4F202010068096814
:1014500043F64602C1F38221C0F60002515CC84047
:101460007047000040F2100043F60801C2F200008D
:10147000C4F202010068096843F64602C1F3423132
:10148000C0F60002515CC8407047000010B543F63A
:101490000404C4F20204606800F00C0008280BD0B9
:1014A000042819BF42F20040C0F2F40041F60030B7
:1014B000C0F2B70010BD00BF206821682368490250
:1014C00041F60031C0F2B70100F03F02C3F38810CB
:1014D0005CBF42F20041C0F2F401A1FB0001002315
:1014E000FEF7C2FE21680222C1F3014102EB410175
:1014F000B0FBF1F010BD00002DE9F04182B00028F2
:101500006AD00446007843F60006C007C4F202061B
:101510000BD0B06800F00C00042840F0A1803068C7
:10152000800302D56068002856D0207880071AD53D
:10153000B06810F00C0F09D0B06800F00C0008285B
:1015400040F0A8807068400200F1A48030688007F5
:1015500002D5E06801283FD13068216920F0F80009
:1015600040EAC10030602078000739D42078400775
:101570004ED4A5695DB3B06800F00C00082840F0B7
:10158000BD80012D28D07068E16900F480028A4294
:1015900022D1216A00F03F028A421DD147F6C07174
:1015A000626A0140B1EB821F16D1A26A0023CFF616
:1015B000FF7303EBC23200F440316FF30F0291422C
:1015C0000AD1E16A00F07060B0EB016F04D1002035
:1015D00002B0BDE8F08100BF012002B0BDE8F0819B
:1015E0006069002840F20000C4F2472076D0012153
:1015F000C0F8801EFFF7B6FD054600BF706F80077C
:10160000B4D4FFF7AFFD401B0228F7D9DDE000BFDF
:10161000306C10F080580AD100200190306C40F0FE
:1016200080503064306C00F080500190019847F297
:101630000007C4F200073868C00541D4386840F498
:1016400080703860FFF78EFD054600BF3868C00522
:1016500036D4FFF787FD401B0228F7D9B5E000BF5D
:10166000B06800F00C00082803D1706840023FF514
:1016700056AF6068B0F5803F07D0B0F5A02F40F0BE
:101680008D80306840F480203060306840F48030D5
:1016900030608DE0E068002852D00020C4F247207E
:1016A00001210160FFF75EFD054600BF306880073D
:1016B0003FF552AFFFF756FD401B0228F6D984E0F4
:1016C000A068012805D005284ED1306F40F00400F5
:1016D0003067306F40F0010030674FE00021C0F804
:1016E000801EFFF73FFD0546706F80077FF53EAF18
:1016F000FFF738FD401B0228F6D966E00027C4F248
:10170000472700203866FFF72DFD022D05460BD137
:10171000306880015ED5FFF725FD401B02284FF0A1
:101720000300F5D954E700BF306880017FF54FAF63
:10173000FFF718FD401B02284FF00300F4D947E7DC
:101740000020C4F2472000210160FFF70BFD054691
:10175000306880077FF507AFFFF704FD401B0228C4
:101760004FF00300F4D933E7316F002821F0010175
:101770003167316F21F0040131674DD0FFF7F2FC82
:10178000054641F2883700BF306F800756D4FFF717
:10179000E9FC401BB842F7D917E000BF31680028C8
:1017A00021F480313160316821F4802131604FD0E3
:1017B000FFF7D8FC054600BF306880033FF5B5AEA3
:1017C000FFF7D0FC401B6428F6D9032002B0BDE827
:1017D000F08100BF04F11C052FCD08430021CFF696
:1017E000FF7140EA821001EBC3316FF30F0140EA51
:1017F00005600843706001203866FFF7B3FC0446BB
:10180000306880013FF5E3AEFFF7ACFC001B022817
:101810004FF00300F4D9DBE6FFF7A4FC054641F2E4
:10182000883700BF306F800708D5FFF79BFC401B4F
:10183000B8424FF00300F5D9CAE600BFB8F1000F77
:101840007FF497AE306C20F08050306491E600BF9A
:10185000FFF788FC054600BF306880037FF565AE62
:10186000FFF780FC401B64284FF00300F4D9AFE67B
:10187000411E0020B0EB116F1CBF012070474EF2DB
:101880001002CEF2000251604EF62351CEF200015A
:10189000F0230B70072190601160704770470000C3
:1018A00070470000B0B590F83C20012A04BF022028
:1018B000B0BD01F108053CCDD1E900CE23F47C5345
:1018C00022F470521A432EF4F0431A432CF4E043EE
:1018D0001A4324F4C0431A432A43C96922F48042BC
:1018E000036811435964002180F83C100846B0BDDC
:1018F00010B590F83C20012A4FF0020251D080F838
:101900003D200268D2F804E0D2F808C00C682EF03E
:101910007003234341F2FF74C4F20004A2425360F7
:101920000EDC40F2FF73C4F200039A4216DCB2F1FF
:10193000804F2BD040F20043C4F2000324E000BFEC
:1019400040F2FF33C4F201039A4213DC41F6000374
:10195000C4F200039A4219D0002313E040F60003BA
:10196000C4F200039A4211D040F60043C4F20003CF
:101970000AE000BF44F20003C4F201039A4205D01A
:1019800040F20043C4F201039A4204D149682CF0AA
:101990008003194391600121002280F83D1080F8F6
:1019A0003C20104610BD0000002804BF01207047F5
:1019B00010B5044690F83D0028B9002084F83C009A
:1019C000204600F01FF8022084F83D002068211D09
:1019D00001F044FB012084F8460084F83E0084F8BE
:1019E0003F0084F8400084F8410084F8420084F805
:1019F000430084F8440084F8450084F83D0000204A
:101A000010BD000080B582B0006840F20041C4F211
:101A10000101884220D040F60001C4F20001884252
:101A200029D10020019043F64000C4F20200016871
:101A3000002241F0040101600068002100F0040070
:101A4000019001981E20FFF70DFC1E2002B0BDE89A
:101A50008040FFF7F7BB00BF0020009043F6400036
:101A6000C4F20200416841F002014160406800F0A8
:101A700002000090009802B080BD000090F83D1078
:101A800001291CBF01207047022180F83D10006829
:101A900041F2FF72C168C4F20002904241F00101BC
:101AA000C1600DDC40F2FF71C4F20001884215DC18
:101AB000B0F1804F2AD040F20041C4F2000123E08F
:101AC00040F2FF31C4F20101884213DC41F600010B
:101AD000C4F20001884219D0002113E040F6000151
:101AE000C4F20001884211D040F60041C4F2000166
:101AF0000AE000BF44F20001C4F20101884205D0AF
:101B000040F20041C4F20101884206D1816801F02F
:101B10000701062904BF00207047016841F0010158
:101B2000016000207047000080B590F83C20012A39
:101B30004FF0020200F0C28080F83D20D0F800C0D3
:101B40004FF67772DCF8083023EA0202CCF808205E
:101B50000B684F2B28DC1F2B44DD202B45D0302B6E
:101B600043D0402B40F0AC80D1F804E0C968DCF8E9
:101B70002030DCF8202022F00102CCF82020DCF814
:101B8000182022F0F00242EA011123F00A0242EA90
:101B90000E02CCF81810CCF82020DCF8081041F028
:101BA000470121F0300180E06F2B27DDB3F5005FA6
:101BB00048D0B3F5805F7AD0702B40F08180D1E9B6
:101BC00001E3C968DCF8082043EA0E0322F47F42EF
:101BD00043EA01211143CCF80810DCF8081041F069
:101BE000770162E00BB1102B6AD1DCF8081021F00C
:101BF0007001194341F0070157E000BF502B35D069
:101C0000602B5DD1D1F804E0C968DCF82030DCF845
:101C1000202022F01002CCF82020DCF8182022F43A
:101C2000704242EA013123F0A00242EA0E12CCF8DF
:101C30001810CCF82020DCF8081041F0670121F0E2
:101C4000100132E0D1E901E3C968DCF8082043EA79
:101C50000E0322F47F4243EA01211143CCF808101D
:101C6000DCF8081041F480411FE000BFD1F804E027
:101C7000C968DCF82030DCF8202022F00102CCF822
:101C80002020DCF8182022F0F00242EA011123F0B3
:101C90000A0242EA0E02CCF81810CCF82020DCF838
:101CA000081041F0570121F02001CCF80810002263
:101CB000012180F83D10002180F83C10104680BDC5
:101CC0000122F5E7002804BF012070472DE9F04705
:101CD000044690F83D000D4628B9002084F83C00E9
:101CE000204600F049F8022084F83D00206844F2C4
:101CF0000702816891438160211D01F0AFF92068DE
:101D00004FF6FF7881688269D0F820C0D5E9003E9F
:101D1000D5E9026A43EA0109AB6922EA080246EA08
:101D200003234FF6FC46B343D5E9076742EA0A02AC
:101D300029691A4342EA062242EA01112CF0AA025A
:101D40006B6942EA0E0241EA073142EA0312C0F827
:101D5000089081610262012084F8460084F83E0008
:101D600084F83F0084F8420084F8430084F83D0082
:101D70000020BDE8F087000080B586B00168002033
:101D8000C4F20100814201D006B080BD002143F6BB
:101D900030020191C4F20202536900F5883043F029
:101DA00001035361536903F001030193019B019106
:101DB000136843F010031360126802F010020192DE
:101DC000019A4FF4206201920222CDE9022104918E
:101DD0000121059101A9FFF7E7F806B080BD0000D9
:101DE00080B590F83E2090F83F3090F842E090F8AF
:101DF00043C004290AD0B9B9012A4FF0010208BF33
:101E0000BEF1010F34D0104680BD00BF012B4FF052
:101E1000010208BFBCF1010FF5D1022180F83F108B
:101E200080F8431000681EE0012A4FF0010208BF4D
:101E3000012BE8D1BEF1010FE5D1BCF1010FE2D1D8
:101E4000022280F83E2080F83F2080F8422080F86F
:101E5000432091B10068016A21F001010162016A29
:101E600041F00101016210216FF0100209E000BF92
:101E7000022180F83E1080F84210006801216FF0C6
:101E80000102036A1A400262026A11430162016898
:101E9000002241F001010160104680BD7047000042
:101EA000B0B504460068C168026902EA0105A907E5
:101EB00020D4680734D428074AD4E80660D4E80759
:101EC00077D1280600F17F80680606D520686FF07C
:101ED00040010161204600F0AFFAA80658BFB0BD2E
:101EE00021686FF0200220460A61BDE8B040FFF78C
:101EF000D7BC00BF6FF00201016101212177806929
:101F0000800703D02046FFF7C9FF05E0204600F018
:101F100065F8204600F0C0F9002020776807CAD590
:101F200020686FF00401016102212177806910F4BB
:101F3000407F03D02046FFF7B1FF05E0204600F0C8
:101F40004DF8204600F0A8F9002020772807B4D5E6
:101F500020686FF00801016104212177C0698007C2
:101F600004D02046FFF79AFF06E000BF204600F0AD
:101F700035F8204600F090F900202077E8069ED53D
:101F800020686FF01001016108212177C06910F409
:101F9000407F03D02046FFF781FF05E0204600F098
:101FA0001DF8204600F078F900202077E8073FF47C
:101FB00088AF20686FF001010161204600F0F8F958
:101FC00028067FF581AF20686FF08001016120460F
:101FD000FFF764FC68067FF580AF77E77047000085
:101FE0002DE9F04190F83C30012B04BF0220BDE800
:101FF000F0814FEAB202032A00F2FC80DFE802F02F
:10200000023E7EBE036840F200471C6A1A6A24F052
:10201000020422F001021A621A46D3F804E052F8D0
:1020200018CF8E6843F48065C4F20107BD4244EACC
:10203000060405D1CE6824F00C0426F004063443CF
:102040000E68BD4207D1D1E905572EF4407E45EA1E
:102050000E0545EA070E2CF073073743C3F804E07A
:102060009F614F6809695F631C629F6947F00807B9
:102070009F619F6927F004079F61B1E0036840F208
:1020800000481C6A1A6A24F0200422F010021A6226
:102090001A46D3F804E052F818CF8F6843F48065ED
:1020A000C4F20108454544EA071407D1CF686FF030
:1020B000400624F0C00406EA071634430F6845457D
:1020C00007D1D1E905562EF4406E4EEA850545EA62
:1020D000860E2CF4E64646EA0727C3F804E09F6123
:1020E0004F6809699F631C629F6947F400679F619D
:1020F0009F6927F480679F6171E000BF036840F229
:1021000000481C6A1A6A24F4007422F480721A626D
:102110001A46D3F804E052F81CCF8F6843F4806568
:10212000C4F20108454544EA072408D1CF6840F2CB
:10213000FF463F0224F4406427EA060634430F6852
:10214000454507D1D1E905562EF4405E4EEA051506
:1021500045EA061E2CF073063743C3F804E0DF613E
:102160004F680969DF631C62DF6947F00807DF61B8
:10217000DF6927F00407DF6132E000BF036840F247
:102180000045D3F820C01A6A43F4806722F48052D5
:102190001A621A465C6852F81CEFD1F800808E680B
:1021A000C4F20105AF4204D14D6924F4804444EAED
:1021B00085142CF4005747EA06372EF4E64646EA23
:1021C00008265C60DE614E6809691E641F62DF6973
:1021D00047F40067DF61DF6927F48067DF61090288
:1021E0001368194311600021002280F83C20084642
:1021F000BDE8F0810121002280F83C200846BDE8BE
:10220000F0810000002804BF0120704710B504468B
:1022100090F83D0028B9002084F83C00204600F0EA
:102220001FF8022084F83D002068211D00F016FFF1
:10223000012084F8460084F83E0084F83F0084F8CA
:10224000400084F8410084F8420084F8430084F898
:10225000440084F8450084F83D00002010BD0000D3
:1022600081B0006840F60041C4F20001884201D00C
:1022700001B070470020009043F64000C4F2020015
:10228000016841F008010160006800F0080000905A
:10229000009801B0704700007047000041B1082964
:1022A00010D0042914BF00F1410200F13F020BE0FD
:1022B00090F83E20012A1CBF01207047022280F8BE
:1022C0003E2013E000F140021278012A1CBF0120D9
:1022D00070470222082907D0042914BF80F8412042
:1022E00080F83F2002E000BF80F84020006801F045
:1022F0001F010122036A02FA01F123EA01020262CC
:10230000026A114341F2FF72C4F20002904201627C
:102310000CDC40F2FF71C4F20001884214DCB0F121
:10232000804F37D040F2004116E000BF40F2FF314D
:10233000C4F20101884215DC41F60001C4F200013B
:10234000884227D0002115E040F60001C4F20001C8
:1023500088421FD040F60041C4F20001884219D0E3
:102360001FE000BF44F20001C4F20101884211D015
:1023700040F20041C4F20101884212D1416C40F2A6
:10238000004340F48062C4F2010341F400419A42E8
:10239000416406D1816801F00701062904BF0020CD
:1023A0007047016841F001010160002070470000A2
:1023B00040F28421C2F20001884218BF704740F207
:1023C000780CC2F2000CDCF81C1040F23C22C2F285
:1023D000000201311268CCF81C1011680020C1F312
:1023E00000118CF80010536A50621A464FF6FF70C5
:1023F000002B18BF121A002908BF1A4600EE102A37
:102400009FED0A1AB8EEC00A30EE010A9FED081AD5
:102410009FED082A20EE010A30EE020ABDEEC00A46
:10242000CCE902328CED040A704700BF0000B042D4
:10243000175D084100803BC47047000070470000F2
:1024400070470000002804BF0120704710B5044603
:1024500090F8410028B9002084F84000204600F0A0
:1024600021F8242084F841002068C16821F400513B
:10247000C160204601F012F82068016921F4904102
:102480000161416921F02A014161C16841F40051B3
:10249000C16000202021606484F8411084F842105B
:1024A000606310BD2DE9F04786B00446006844F62D
:1024B0000001C4F2000100268842CDE90466CDE99E
:1024C000026601966ED041F20001C4F20101884219
:1024D00040F0B680002743F630000097C4F20200B7
:1024E0004169002541F0100141614169C4F20205D2
:1024F00001F01001009100990097016801AE41F0D0
:102500000201016001684FF0020801F00201009130
:102510000099009701684FF0030941F00101016043
:1025200000684FF0070A00F001000090009880203A
:10253000019005F580603146CDE90287CDF8109015
:10254000CDF814A0FEF730FD4FF40070CDE901087E
:1025500003A880E8800628463146FEF725FD46F2AE
:102560002800C4F2020040F27C1500F59260C2F22D
:1025700000054FF00061402285E887004FF44030AD
:102580004FF48063C5E908072846C5E90437C5E963
:102590000677FEF7F3FB002818BFFDF757FFA5638A
:1025A0004BE000BF43F630000096C4F20200016920
:1025B00041F480210161016901F4802100910099B9
:1025C0000096016841F004010160006801A900F073
:1025D0000400009000984FF4406001900220CDE983
:1025E000020603200490072005900020C4F2020098
:1025F00000F50060FEF7D8FC40F2DC1546F228003A
:10260000C2F20005C4F202004FF0006185E8430009
:102610004FF440304FF480624FF48073C5E90806F0
:102620002846C5E90362C5E90566EB61FEF7A6FB2E
:10263000002818BFFDF70AFFE56305F138000460C4
:1026400006B0BDE8F087000070B582B0044690F88F
:10265000420020280AD113460A4600294FF0010003
:1026600018BF002B06D102B070BD00BF022002B01F
:1026700070BD00BF002622202663A262A385666487
:1026800084F842002168E06B43F2253C43F2854E1A
:1026900043F2A915C0F6000CC0F6000EC0F6000506
:1026A0000431C0E90FCEC0E91356FEF719FC0196BC
:1026B000206801680191416801910199216929B35C
:1026C00050E8030F216840F4807041E80302EAB14A
:1026D000206850E8030F216840F4807041E803024D
:1026E000A2B1206850E8030F216840F4807041E8EF
:1026F00003025AB1206850E8030F216840F480704B
:1027000041E8030212B12068DAE700BF206850E810
:10271000050F216840F0010041E80502BAB32068C6
:1027200050E8050F216840F0010041E8050272B34E
:10273000206850E8050F216840F0010041E80502DB
:102740002AB3206850E8050F216840F0010041E8F5
:102750000502002ADAD11AE0206850E8050F216846
:1027600040F0400041E80502DAB1206850E8050F6A
:10277000216840F0400041E8050292B1206850E82D
:10278000050F216840F0400041E805024AB1206889
:1027900050E8050F216840F0400041E80502002A9A
:1027A000DAD1002002B070BDB0B540F27800C2F2BC
:1027B000000090F830E090F8312090F833C090F8A5
:1027C000323090F8341062F30A2ED2084FEA8C0CA3
:1027D00063F34A124CEA931C01F001034CEA832C88
:1027E00090F83530490863F3CA11C3F301149B090B
:1027F00080F84B30C38E80F84A40D0E90E45A2F5F0
:102800008062A0F84C30AEF58063A0F84420ACF5AF
:102810008062A1F58061C0F84E40C0F85250A0F827
:102820004230A0F84620A0F848104360B0BD000038
:1028300070470000FEE7000080B540F2541046F2F9
:102840000041C2F20000C4F200010322002380E82C
:102850000E0000F10C014FF4102C4FF4001E81E823
:10286000085083618383FEF79BF8002808BF80BD72
:10287000BDE88040FDF7EABD80B582B0002043F698
:1028800030010190C4F202010A6842F480020A6039
:102890000A6802F480020192019A009008680022FE
:1028A00040F4001008600868002100F40010009057
:1028B00000980C20FEF7D6FC0C20FEF7C3FC462047
:1028C00000210022FEF7CEFC462002B0BDE8804089
:1028D000FEF7B8BC81B0002143F630000091C4F28D
:1028E0000200026842F001020260026802F0010286
:1028F0000092009A0091026842F0020202600268AF
:1029000002F002020092009A0091026842F008026E
:102910000260026802F008020092009A00910268C8
:1029200042F004020260026802F004020092009A7F
:102930000091026842F480720260026802F48072C0
:102940000092009A0091026842F0800202600268E0
:1029500002F080020092009A0091016841F010019B
:102960000160006800F010000090009801B070470E
:1029700010B58CB040F23C200021C2F20000C4F23D
:1029800001010024032280E8160001214FF6FF73A5
:10299000CDE90324CDE905140F22CDE9091403A9DB
:1029A000CDE90044C0E90334C0E90544CDE907247A
:1029B0000B92FFF787F9002818BFFDF747FD40F29B
:1029C0003C20C2F200006946CDE90044FEF790FFCA
:1029D000002818BFFDF73AFD0CB010BD80B586B0D9
:1029E00040F2842040F600020021C2F20000C4F24E
:1029F000000244F29F134FF0310C0591CDE9031111
:102A0000CDE90011C0E90023C0E9021C0161816128
:102A1000FEF7CAFF002818BFFDF718FD4FF48050DD
:102A2000029040F28420C2F2000002A9FFF77CF875
:102A3000002818BFFDF70AFD0020CDE9000040F294
:102A40008420C2F200006946FEF752FF002818BF3A
:102A5000FDF7FCFC06B080BDB0B590B040F6004577
:102A600040F2CC20C4F200050021C2F200004FF673
:102A7000FF720991CDE90711CDE90511CDE90311E7
:102A8000CDE90111C0E90051C0E902120161816183
:102A9000FFF7B8FB002818BFFDF7D8FC40F2CC20A8
:102AA000C2F2000008A9FEF723FF002818BFFDF7B7
:102AB000CDFC602001900020CDE90200059040F29D
:102AC000CC20C2F2000001A90022FFF789FA0028F9
:102AD00018BFFDF7BBFC40F2CC20C2F2000001A9F8
:102AE0000422FFF77DFA002818BFFDF7AFFC40F283
:102AF000CC24C2F2000401A920460822FFF770FA94
:102B0000002818BFFDF7A2FC216840F20042C4F281
:102B1000010200209142CDE90E00CDE90C000B909E
:102B200018D0A94232D100200A9043F63000C4F2F6
:102B30000200016841F0800101600068022100F09C
:102B400080000A900A984FF4E0500B9005F504308D
:102B500013E000BF0A9043F63000C4F2020001689F
:102B600041F4807101600068032100F480700A90D4
:102B70000A98C0200B9005F5053002220C92002225
:102B80000F910BA9CDE90D22FEF70EFA10B0B0BDE2
:102B900070B59CB040F2004540F21430C4F201051B
:102BA0000021C2F20000A72244F61F631591CDE96F
:102BB00013111191CDE90F11CDE90D11CDE90B11D3
:102BC000CDE90911CDE90711CDE90511CDE90311D1
:102BD000CDE90111C0E90052C0E90213C0E90411B6
:102BE0008161FEF7E1FE002818BFFDF72FFC4FF4CE
:102BF0008050129040F21430C2F2000012A9FEF789
:102C000093FF002818BFFDF721FC40F21430C2F2F8
:102C10000000FFF7F7FA002818BFFDF717FC40F295
:102C200014300024C2F2000010A9CDE91044FEF7D0
:102C30005FFE002818BFFDF709FC6020CDE90904FC
:102C400040F21430C2F2000009A90422CDE90B447D
:102C5000CDE90D440F94FFF7C3F9002818BFFDF725
:102C6000F5FB40F21430C2F2000009A90822FFF778
:102C7000B7F9002818BFFDF7E9FB40F214344FF410
:102C80000050C2F200040026069001A920460596D5
:102C9000CDE90366CDE901660896FEF703FE00283C
:102CA00018BFFDF7D3FB20681B96A842CDE9196633
:102CB000189617961CD040F60041C4F200018842D5
:102CC00033D10020169043F63000C4F202000168B0
:102CD00041F0800101600068022100F08000169040
:102CE00016984FF4E050179005F58C3014E000BFB3
:102CF0000020169043F63000C4F20200016841F44F
:102D0000807101600068032100F4807016901698AD
:102D1000C020179005F58E300222189200221B91D8
:102D200017A9CDE91922FEF73FF91CB070BD0000CC
:102D300080B540F25C3041F20001C2F20000C4F202
:102D4000010100234FF00C0C4FF4E13280E80E003B
:102D5000C0E90333C0E905C3C361FFF773FB002873
:102D600008BF80BDBDE88040FDF770BB80B540F274
:102D7000A43044F60001C2F20000C4F2000148F29F
:102D8000A062C0F20102002380E80E0000F10C01F5
:102D90004FF4806C4FF00C0E81E80850C0E9063308
:102DA000FFF750FB002808BF80BDBDE88040FDF75D
:102DB0004DBB0000FEE70000FEE70000002857D0F2
:102DC000017890ED111A90ED122A80ED090A30EE8B
:102DD000C00A0029C0ED080A80ED110A80ED121A20
:102DE00080ED132A48D0012940F0AA8090ED015AC5
:102DF00090ED026A30EE414A31EE011A90ED037A0D
:102E000024EE054A20EE065A30EE410A32EE000A60
:102E1000D0E90E1280ED0E0A20EE070A34EE051AF4
:102E200090ED0A2A90ED043A80ED0D0A31EE000A89
:102E300032EE000AB4EE430AF1EE10FA80ED0B4ACE
:102E400080ED0C5AC0E90F1280ED0A0AC2BF80ED76
:102E50000A3AB0EE430A7047B1EE431AB4EE410AA3
:102E6000F1EE10FABCBF80ED0A1AB0EE410A7047CD
:102E70009FED350A704700BF90ED072A90ED0B3AA1
:102E8000B7EE005A90ED016A22EE034A35EE422A6F
:102E900022EE062A90ED027A20EE022A34EE022A71
:102EA00090ED0C4A20EE076A34EE064A30EE410AF5
:102EB00090ED061A90ED0D6AD0ED030A90ED053AFB
:102EC00021EE066A35EE411A21EE201AD0E90E12E3
:102ED00080ED0E0A20EE010AB4EE434A36EE000AF7
:102EE000F1EE10FA80ED0B2A80ED0C4AC0E90F12CA
:102EF00080ED0D0A06DCB1EE433AB4EE434AF1EE42
:102F000010FA03DAB0EE434A80ED0C3A32EE042AAE
:102F100090ED041A30EE020AB4EE410AF1EE10FA16
:102F200080ED0A0A07DCB1EE411AB4EE410AF1EE77
:102F300010FAA8BF7047B0EE410A80ED0A1A704738
:102F400090ED0A0A704700BF00000000002818BF7B
:102F5000002A01D1704700BF80B50170116841603F
:102F60005168816091680022C16000F1280180ED04
:102F7000040AC0ED050AC0E9062208462821FDF72B
:102F8000EBF9BDE8804070477047000070470000D3
:102F9000FEF7EEB8B0B592B0002443F64000CDE99C
:102FA0000A44CDE908440594CDE90344CDE9014440
:102FB0000094C4F202000168022541F080510160D2
:102FC000006800F080500090009847F200000094E4
:102FD000C4F20000016841F480410160006800F41F
:102FE000804000900098012006904FF480300790B8
:102FF0004FF480000D9006200E90A820CDE90F051B
:103000000420119006A80C95FEF776FA10B172B65E
:10301000FEE700BF0F20CDE901054FF4A05004905A
:103020004FF48050059001A805210394FEF756F94E
:1030300010B172B6FEE700BF12B0B0BD4EF68850B8
:10304000CEF20000016841F4700101607047000099
:1030500040F28420C2F20000FEF722BF10B540F615
:10306000FF3E0368C4F2000E40F2004C7045C4F20B
:10307000010C27DCB0F1804F31D040F20042C4F2A5
:10308000000290422BD040F60002C4F200029042AF
:1030900025D041F6FF72C4F20002904229DC70454F
:1030A0003CDCB0F1804F5FD040F20042C4F200023D
:1030B000904259D040F60002C4F20002904253D030
:1030C00056E000BF40F60042C4F20002904206D033
:1030D000604504D00022C4F201029042D9D14A686E
:1030E00023F07003134341F6FF72C4F200029042D2
:1030F000D5DD43F6FF72C4F20102904222DC42F2B7
:103100000002C4F2000290422ED00022C4F201025A
:10311000904229D0604527D02AE000BF40F6004207
:10312000C4F2000290421FD041F60002C4F2000235
:10313000904219D041F60042C4F20002904213D0EE
:1031400016E000BF44F20002C4F2010290420BD02C
:1031500044F60002C4F20102904205D044F200425B
:10316000C4F20102904203D1CA6823F440731343AE
:1031700023F080024B69D1F800E08C681A430260AA
:10318000C46240F48062C0F828E0624504BF096967
:103190000163012141610169C90708BF10BD0169CF
:1031A00021F00101016110BD806B01684A6990F84E
:1031B0004130212B2ED112F080022BD00022C2846C
:1031C00051E8031F026821F0C00142E80313EBB18C
:1031D000016851E8031F026821F0C00142E80313AF
:1031E000A3B1016851E8031F026821F0C00142E861
:1031F00003135BB1016851E8031F026821F0C001AD
:1032000042E8031313B10168DAE700BF202180F818
:10321000411001684A6990F84230222B7CD112F0AB
:10322000400279D00022C28551E8031F026821F4D0
:10323000907142E80313C3B3016851E8031F0268A9
:1032400021F4907142E803137BB3016851E8031F36
:10325000026821F4907142E8031333B3016851E826
:10326000031F026821F4907142E80313EBB1016877
:10327000DAE700BF016851E8051F026821F001018B
:1032800042E80513DBB1016851E8051F026821F02F
:10329000010142E8051393B1016851E8051F026876
:1032A00021F0010142E805134BB1016851E8051F07
:1032B000026821F0010142E80513002BDAD1016B0D
:1032C000012924D1016851E8031F026821F010018F
:1032D00042E80313DBB1016851E8031F026821F0E3
:1032E000100142E8031393B1016851E8031F02681B
:1032F00021F0100142E803134BB1016851E8031FAC
:10330000026821F0100142E80313002BDAD12021DA
:1033100080F8421000210163416C41F010014164CA
:10332000FFF78EB80168806B0968C90500F19F80BE
:103330000021C185016851E8031F026821F48071F2
:1033400042E80313E3B1016851E8031F026821F466
:10335000807142E803139BB1016851E8031F0268C2
:1033600021F4807142E8031353B1016851E8031F4F
:10337000026821F4807142E80313002BDAD100BF08
:10338000016851E8051F026821F0010142E80513B8
:10339000BBB3016851E8051F026821F0010142E852
:1033A000051373B3016851E8051F026821F001019C
:1033B00042E805132BB3016851E8051F026821F0AC
:1033C000010142E80513002BDAD11AE0016851E847
:1033D000051F026821F0400142E80513DBB10168D6
:1033E00051E8051F026821F0400142E8051393B13E
:1033F000016851E8051F026821F0400142E8051309
:103400004BB1016851E8051F026821F0400142E814
:103410000513002BDAD1202180F84210016B01291D
:1034200025D100BF016851E8031F026821F0100197
:1034300042E80313DBB1016851E8031F026821F081
:10344000100142E8031393B1016851E8031F0268B9
:1034500021F0100142E803134BB1016851E8031F4A
:10346000026821F0100142E80313002BDAD1002199
:103470004163016B012918BFFFF796B9818DFEF7F3
:10348000DDBF0000806B01214163016B012918BF82
:10349000FFF7CEB9818D4908FEF7D0BF10B50446BD
:1034A0000068D4E902C22369016921F44051114343
:1034B0000161626943EA0C01E3691143C26819437F
:1034C00049F20C639A431143C1604169A26921F436
:1034D000407141F20043114340F48062C4F20103A1
:1034E0009A42416102D1FDF7BDFF01E0FDF7A6FF61
:1034F000E16963681922B1F5004FA0FB02011FD1F9
:103500005A00DB0FFCF7B0FE48F21F51C5F2EB1179
:10351000A0FB01235A096FF0630302FB030032236F
:1035200003EBC000A0FB01014FF4F87000EA11109A
:1035300000EB0210C1F3421122680843906010BDF5
:103540009A009B0FFCF790FE48F21F51C5F2EB1159
:10355000A0FB01235A096FF0630302FB030032232F
:1035600003EB0010A0FB0101F02000EA511000EB7A
:103570000210C1F3431122680843906010BD00009F
:10358000FEE7000010B58AB040F25414012000217B
:10359000C2F200040890CDE90610CDE90011CDE992
:1035A0000211CDE9041169462046FCF7BDFF204613
:1035B000FDF7C8FA20460221FCF74CFF0AB010BD07
:1035C0008CB0FDF7E3FDFFF7E5FCFFF783F9FFF7AC
:1035D00053F9FFF731F9FFF7ABFBFFF7C7FBFFF735
:1035E0003BFAFFF7D5FAFFF7C3F9FFF7F7F940F217
:1035F000E8059FED890AC2F2000543F6500205F185
:103600001C00C0F600020021F0EE400A01900026E6
:10361000FFF79CFC40F23C20C2F200003C216E64AB
:10362000FEF7DEFB40F28420C2F20000FEF726FA2D
:10363000FFF7A8FF40F27808C2F2000840F2A43079
:1036400008F13001C2F200001222FEF7FDFF40F245
:10365000CC24C2F2000420460021FEF71FFE2046C3
:103660000421FEF71BFE204608210824FEF716FE63
:1036700040F21437C2F2000738460421FEF70EFE6E
:1036800038460821FEF70AFE40F21110C8E9160676
:103690004FF48970C5E9000601204FF409510A90E2
:1036A000CDE902164FF6FF71CDE9086040F25410E3
:1036B000CDE90411C2F2000002A9C8E91866C8F8F1
:1036C000684088F86C60C5E902662C61CDE9066641
:1036D0000B96FCF729FF68B940F25410C2F20000C3
:1036E000FDF730FA30B940F25410C2F20000022166
:1036F000FCF7B0FE40F21435C2F200052868002441
:103700008463C4636420FDF73BFC286840F2DB5B04
:10371000C0F838B0C0F83CB040F6B830FDF730FC27
:1037200028688463C4634FF47A70FDF729FC286825
:1037300040F2541A40F2000940F2143608F1200118
:10374000C2F2000AC2F2000908F1580508F1280780
:10375000C2F20006009146E040F2CC24C2F200041E
:1037600020684CF2503141638163C163B8F8200096
:10377000B8F82220000401BA1004D8E9082300BADE
:10378000C8E90A230022C9F80010C9F8040088F823
:103790000120326801EE100A9163D8F810100198E8
:1037A00001F2DB5100EE101AB8EEC00AF8EE410A41
:1037B000FFF704FBBDEEC00A10EE100A316800F2FC
:1037C000DC5088ED050AC86308F118035046294605
:1037D0003A46FCF757FE0820FDF7D2FB20684FF46D
:1037E000FA7BC0F834B0C0F838B0C0F83CB040F252
:1037F000E802009B50460021C2F20002FCF706FFDF
:1038000098F801000028A7D1D9E9001040F2CC2493
:10381000C2F20004BDE700BF00C03C44F1EE100A54
:103820004FF6FF71C0F2C03120EA010040F0407055
:10383000E1EE100A704700000000000000000102E5
:103840000304060708090000000001020304000049
:103850009A99993F00000000ACC527370006101662
:10386000000610168838000800000020180000002C
:10387000C4010008A038000818000020D809000082
:10388000E001000800000000DB050000DB0500008F
:1038900001000000100000000024F40000000000FF
:040000050800018965
:00000001FF
