:020000040800F2
:10000000180B0020610200080B210008371F0008B0
:1000100009210008B3040008A1270008000000001F
:10002000000000000000000000000000C7220008DF
:10003000C505000800000000C5220008C92200080C
:100040007B0200087B0200087B0200087B0200089C
:100050007B0200087B0200087B0200087B0200088C
:100060007B0200087B0200087B0200087B0200087C
:10007000090500087B0200087B0200087B020008DB
:100080007B0200087B0200087B0200087B0200085C
:10009000B50400087B0200087B0200087B02000810
:1000A0007B020008712300087B0200087B02000825
:1000B0007B0200087B0200087B0200087B0200082C
:1000C0007B0200087B0200087B0200087B0200081C
:1000D0007B0200087B0200087B0200087B0200080C
:1000E0007B0200087B0200087B0200087B020008FC
:1000F0007B0200087B0200087B0200087B020008EC
:100100007B0200087B0200087B0200087B020008DB
:100110007B0200087B0200087B0200087B020008CB
:100120007B0200087B0200087B0200087B020008BB
:100130007B0200087B0200087B0200087B020008AB
:100140007B0200087B0200087B0200087B0200089B
:100150007B0200087B020008150500087B020008EE
:100160007B0200087B0200087B0200087B0200087B
:100170007B0200087B0200087B02000800000000F0
:100180007B0200087B02000800F002F800F03EF855
:100190000AA090E8000C82448344AAF10107DA45E2
:1001A00001D100F033F8AFF2090EBAE80F0013F0F6
:1001B000010F18BFFB1A43F001031847403300003A
:1001C00060330000103A24BF78C878C1FAD85207CB
:1001D00024BF30C830C144BF04680C6070470000C1
:1001E0000023002400250026103A28BF78C1FBD840
:1001F000520728BF30C148BF0B6070471FB503F0DE
:100200004CF900F0DAF81FBD10B510BD00F01CF974
:100210001146FFF7F3FF02F093FC00F03AF903B444
:10022000FFF7F2FF03BC00F03DF900000B49D1F8E5
:1002300000C04A685CF8043B1068184442F8040B9C
:100240008C4528BFA1F1DC0C8A4228BFA1F1DC0259
:10025000C1F800C04A6020F000407047AC040020A4
:100260000948804709480047FEE7FEE7FEE7FEE74A
:10027000FEE7FEE7FEE7FEE7FEE7FEE70448054986
:10028000054A064B704700006123000889010008F9
:1002900018050020180B0020180700201807002060
:1002A00053EA020C00F069802DE9F04B4FF0000694
:1002B000002B1FBFB3FA83F503FA05F424FA05F601
:1002C0005E4012BF1643B2FA82F502FA05F4C5F198
:1002D00020051EBF22FA05FC44EA0C04203556EA2C
:1002E000044C4FEA144418BF641C4FF000084FF050
:1002F0000009904271EB030C39D3002919BFB1FA00
:1003000081F701FA07F6B0FA80F700FA07F6C7F1AD
:1003100020071EBF20FA07FC46EA0C062037B6FB72
:10032000F4FCA7EB0507103F07F01F0BCBF12006ED
:100330000CFA0BFB2CFA06F644BFB3460026202F1E
:10034000A4BF5E464FF0000B5BEA060C08BF4FF0FF
:10035000010B19EB0B09ABFB027C48EB0608C01B39
:1003600006FB02CC0BFB03CC71EB0C01C1E70B4687
:10037000024641464846BDE8F08B13B54FF00000F9
:100380004FF00001AFF30080BDE81C407047000053
:100390000B4910B5A1F17C020A4CC2E93712372192
:1003A00006E000EB104342F82130074B00FB03400E
:1003B0000B1EA1F10101F4DC10BD0120E8E70000F3
:1003C0004C040020E119D666CD0D01004FF000026B
:1003D00000B5134694469646203922BFA0E80C503B
:1003E000A0E80C50B1F12001BFF4F7AF090728BF16
:1003F000A0E80C5048BF0CC05DF804EB890028BF92
:1004000040F8042B08BF704748BF20F8022B11F0BA
:10041000804F18BF00F8012B704770477047704736
:1004200010B500F009F8006810BD10B5044600F0E2
:1004300003F8046010BD000000487047B4040020B9
:1004400000487047B40400207546FFF7F9FFAE4638
:1004500005006946534620F00700854618B020B5D0
:10046000FFF70CFFBDE820404FF000064FF00007FB
:100470004FF000084FF0000B21F00701AC46ACE84C
:10048000C009ACE8C009ACE8C009ACE8C0098D46B9
:10049000704710B50446AFF300802046BDE8104019
:1004A000FFF7BDBE01491820ABBEFEE726000200E3
:1004B0007047FEE7014800F004BA0000B8010020D0
:1004C00038B50E4C4FF4007525600025A560E56039
:1004D000082525610A4C050A25706070080AA0707D
:1004E000E170100A20716271180AA071E3716B4605
:1004F00022460249034800F07AF838BDB8030020CC
:1005000035000020B8010020014800F009BC0000BF
:1005100010030020014800F003BC0000B0020020DE
:1005200001681823CAB2103AB2FBF3F2054B6FF31D
:100530000901032A9B5CC36500D9091D8165084632
:1005400070470000BC34000810B5014600208B69DC
:100550008A6A4FF0C07453B1B3F5005F15D072B121
:10056000012A0CD0022A0AD0032A09D104E01AB1C8
:10057000012A06D0022A03D1C96AC90100D5012087
:1005800010BDC96AA142FAD010BD002AF7D0012AD5
:10059000F2D0022AF3D0032AF3D010BD30B504689C
:1005A000256825F480252560046863608368402BF6
:1005B000036803D099600068C26030BD9A6000682B
:1005C000C16030BD704772B6FEE790F82020012A66
:1005D00007D0022A05D0416A41F4802141620120FE
:1005E0007047006842690A43426100207047F0B5D5
:1005F00090F820500468A468012D05D0022D03D086
:10060000416A41F480215DE014F0406F01D1E500C2
:1006100055D5C4F30164022C03D9416A41F40001A9
:1006200050E00125A5401D608D684FF4C0739DB159
:10063000CE6835434E6845EAC605066803EB0417E5
:10064000F5514FF4C275076805EB04150E697E512C
:10065000097D012905D009E00E88CD6845EA465597
:10066000EBE701684E5946F480764E511179D57901
:10067000567941EA056195792D0445EA0625294315
:100680004FF4C676056806EB0416A9511178D578A3
:1006900041EA0561957852782D0445EA022211431A
:1006A0004FF4C475026805EB04155151006803EB63
:1006B0000411425842F0010242500020F0BD416A4C
:1006C00041F4001141620120F0BD000010B590F826
:1006D0002020012A07D0022A05D0416A41F4802156
:1006E0004162012010BD3B48D0F8002242F00102D7
:1006F000C0F80022D0F8002222F47C52C0F8002278
:10070000D0F800224B6A42EA0322C0F800220A7D98
:1007100002F01F0301229A40D0F81C329343C0F824
:100720001C32CB69B3B9D0F80C329343C0F80C3209
:100730008C894B6864F31F434C6900EBC404C4F814
:1007400040320C890B6864F31F434C6900EBC4040E
:10075000C4F84432CB69012B16D1D0F80C321343C4
:10076000C0F80C320C884B6864F31F434C6900EBF3
:10077000C404C4F840320C89CB6864F31F434C694D
:1007800000EBC404C4F844328B69002BD0F8043267
:100790000ED01343C0F804320B69002BD0F814328A
:1007A00008D01343C0F81432096A012904D008E0C4
:1007B0009343EFE79343F5E7D0F81C121143C0F8D9
:1007C0001C12D0F8001221F00101C0F80012002024
:1007D00010BD000000640040704730B590F8204024
:1007E000012C05D0022C03D0416A41F480215DE048
:1007F0000468002955D02469A40754D04FF4D87454
:10080000056804EB01142D5915F004059560056881
:100810002D594ED0ED08556005682C5904F002049E
:10082000D4604FF4DA74056804EB01142D5905F017
:100830000F05156105682D59C5F3072595610568F4
:100840002C59240C54614FF4DC72046802EB011241
:10085000A4581C700468A458240A5C700468A45846
:10086000240C9C700468A258120EDA704FF4DE72E9
:10087000046802EB0112A4581C710468A458240AED
:100880005C710468A458240C9C710468A258120E70
:10089000DA71006881B1016941F020010161002035
:1008A00030BDE468A8E7416A41F4001141620120CB
:1008B00030BD6D0D1560AFE7C16841F02001C1602A
:1008C000EDE72DE9F05F0546006800244669D0F8A1
:1008D00004908768D0F80CB0D0F810A0D0F8188039
:1008E000F10748D0F90714D001218160B80703D57A
:1008F000284600F00EFA0CE0780702D54FF40064A9
:1009000007E0380702D54FF4805402E0284600F093
:10091000FFF9F80516D529684FF480708860B8058E
:1009200003D5284600F0F7F90CE0780502D544F429
:10093000005407E0380502D544F4804402E028461C
:1009400000F0E8F9F80316D529684FF48030886084
:10095000B80303D5284600F0E0F90CE0780302D58F
:1009600044F4004407E0380302D544F4803402E044
:10097000284600F0D1F9300707D55FEACB6004D5EF
:100980002968102044F40074C86070074FF008070D
:1009900007D55FEA0B7004D52868C760284600F0C9
:1009A00057F9B00706D52868C068800702D02846E6
:1009B00000F050F9700607D55FEACA6004D52968CF
:1009C000102044F480640861B00607D55FEA0A701D
:1009D00004D528680761284600F06AF9F00606D5B4
:1009E00028680069800702D0284600F062F9B00349
:1009F00008D55FEAC96005D52968102048602846F7
:100A000000F058F9F00307D55FEA097004D52868AB
:100A10004760284600F082F9300446D55FEA497005
:100A200040D5F00504D55FEAC87001D044F0010458
:100A3000B00504D55FEA887001D544F00204700562
:100A400004D55FEA487001D544F00404300529D587
:100A500018F0700F26D008F07000402815D006DC82
:100A6000102809D020280AD0302816D10AE05028B2
:100A70000ED0602811D10EE044F008040DE044F0DF
:100A800010040AE044F0200407E044F0400404E0CD
:100A900044F0800401E044F480742868816921F006
:100AA00070018161296804204860002C05D0686AC3
:100AB000204368622846FFF78FFEBDE8F09F70B5BF
:100AC000040003D094F8200010B104E0012070BDB0
:100AD000204600F081F82068016841F001010160C2
:100AE00000F09AFB0546052604E000F095FB401B4C
:100AF0000A2811D820684068C007F6D0206801682D
:100B000021F00201016000F087FB05460BE000F0D8
:100B100083FB401B0A2806D9606A40F400306062FB
:100B200084F82060D2E7206840688007EFD4207EF8
:100B30000128206801683DD021F080010160607EBD
:100B400001282068016838D021F040010160A07EB2
:100B500001282068016833D021F020010160E07E87
:100B60000128206801682ED041F010010160207F2B
:100B700001282068016829D021F008010160607F08
:100B800001282068016824D021F004010160D4E923
:100B900002010843D4E90412114308436168491E65
:100BA00008432168C86100206062012084F82000A9
:100BB000002070BD41F08001C0E741F04001C5E771
:100BC00041F02001CAE721F01001CFE741F0080110
:100BD000D4E741F00401D9E710B586B004461421EA
:100BE0006846FFF7F3FB17492068884227D116486B
:100BF0000021026842F000720260006800F000709C
:100C0000059011481038026842F00802026000683E
:100C1000022200F0080005900320CDE90210CDE982
:100C20000002092004906946084800F0FDF90022FE
:100C30001146142000F05EFB142000F04DFB06B0BE
:100C400010BD00000064004040380240000C02402B
:100C50007047000000B58BB001AB03AA0021FFF77D
:100C6000BCFD0398A0F2012006281AD80E49C0B294
:100C700000EB800208700D4901EB420031F81230A0
:100C80000381BDF804305BBA21F81230BDF80610BC
:100C900049BA4180BDF8081049BA81809DF80A1010
:100CA00081710BB000BD00003400002070030020F3
:100CB000704770477047000070B5044690F82000F8
:100CC000012804D0606A40F40020606218E002202D
:100CD00084F820002068016821F00101016000F023
:100CE0009BFA05460EE000BF00F096FA401B0A286A
:100CF00008D9606A40F400306062052084F8200062
:100D0000012070BD20684068C007EDD1606270BDF1
:100D100070477047704770477047704770470000D2
:100D20002DE9F84304464FF00009CDF800906348E0
:100D30004FF41651A56D0068B0FBF1F72E6894F8DA
:100D40005C10082000FA01F131420FD021680A68D6
:100D500052070BD50A6822F004020A6094F85C106E
:100D60008840A860606D40F00100606594F85C10F8
:100D70004FF0010808FA01F0304208D021684969B3
:100D8000090604D5A860606D40F00200606594F823
:100D90005C1004208840304208D021680968890727
:100DA00004D5A860606D40F00400606594F85C10A4
:100DB00010208840304218D021680968090714D5EE
:100DC000A86020680168490304D50068000308D5BD
:100DD000A16C07E00168C90503D4016821F008018E
:100DE0000160216C09B12046884794F85C102020EE
:100DF0008840304231D021680968C9062DD5A860E5
:100E000094F8350005282068016806D0490347D5C5
:100E1000006800031DD4616C1CE021F01601016024
:100E20002068416921F080014161206C08B9A06C03
:100E300020B12068016821F00801016094F85C107D
:100E40003F208840A86084F8358084F83490216D74
:100E50001FE0E16B09B120468847606D00282BD068
:100E6000606DC00714D0052084F835002068016843
:100E700021F0010101600098401C0090B84203D8A5
:100E800020680068C007F6D184F8358084F8349073
:100E9000E16C002910D001B02046BDE8F0430847BE
:100EA0000168C905D5D4016821F01001016084F8FA
:100EB000358084F83490CCE7BDE8F883300000201A
:100EC0002DE9F041044600F0A7F906465CB1022086
:100ED00084F83500002584F834502068016821F03A
:100EE000010101600DE00120BDE8F08100F094F9FE
:100EF000801B052805D920206065032084F8350073
:100F0000F2E720680068C007F0D122681168204825
:100F10000140D4E901031843D4E9033633431843AD
:100F200063691843A3691843E3691843236A1843A4
:100F30000843616A042903D1D4E90B131943084318
:100F4000106020684069666A20F0070130460E4351
:100F5000012704280CD1A06A0643E06A40B120466C
:100F6000FFF7F2FA20B14020606584F83570BAE7E7
:100F7000206846612046FFF7D3FA94F85C203F21B1
:100F800091408160656584F835700020ACE7000011
:100F90003F8010F02DE9F0410446866D90F8340052
:100FA000002501280DD0012084F8340094F8357014
:100FB0000020012F07D084F8340002252846BDE820
:100FC000F0810220FBE7022784F835706065204637
:100FD000FFF7E4FA94F85C103F208840B060206886
:100FE000016841F016010160206C20B120680168A1
:100FF00041F0080101602068016841F001010160D1
:10100000DCE7000070B5044600F006F90546601CF8
:1010100002D004480078044400F0FEF8401BA042CF
:10102000FAD370BD240000202DE9F84FDFF8BCA1F1
:101030000022012503264FF00F090AF1040BAAF143
:10104000040E00BF0B6805FA02F42340A34270D1DE
:101050000F7907F00307012F01D0022F16D18768FF
:101060004FEA420806FA08FC27EA0C07D1F80CC040
:101070000CFA08FC4CEA070CC0F808C04768A74304
:101080000C79C4F3001494403C4344600C79E4436D
:10109000A4070AD0C4684FEA420C06FA0CF7BC4316
:1010A0008F6807FA0CF72743C7600C7904F0030434
:1010B000022C12D1D40800EB840CDCF82040570736
:1010C000FF0E09FA07F824EA0804D1F8108008FA9C
:1010D00007F848EA0408CCF8208004684FEA420C7C
:1010E00006FA0CF7BC430F7907F0030707FA0CF771
:1010F000274307604C6814F4403F70D03C4C27688D
:1011000047F480472760246822F0030704F48044F2
:101110000094384C07EB040CDCF8084897074FEABA
:10112000177809FA08F7BC43334FB84202D10027B9
:1011300024E054E0314FB84201D101271EE0304F86
:10114000B84201D1022719E02E4FB84201D103273E
:1011500014E02D4FB84201D104270FE02B4FB842C5
:1011600001D105270AE02A4FB84201D1062705E040
:10117000284FB84201D1072700E0082707FA08F7EF
:101180002743CCF80878DAF800405746D1F804C075
:101190009C435FEACC2C00D51C433C60DBF800404C
:1011A0005F46D1F804C09C435FEA8C2C00D51C43F9
:1011B0003C60DEF800407746D1F804C09C435FEA0B
:1011C0008C3C00D51C433C60084F083F3C68D1F87C
:1011D00004C09C435FEACC3C00D51C433C60521CDD
:1011E000102AFFF42FAFBDE8F88F0000083C014043
:1011F0004438024000300140000002400004024038
:1012000000080240000C024000100240001402409E
:1012100000180240001C024001488068704700002E
:1012200024000020024881680278114481607047E0
:10123000240000200B4810B5016841F400710160E2
:10124000016841F480610160016841F480710160CE
:10125000032000F06FF80F2000F006F800F024F8EB
:10126000002010BD003C024070B50D4D04464FF407
:101270007A712878B1FBF0F00A490968B1FBF0F007
:1012800000F00CFB48B9102C07D200222146501E5A
:1012900000F030F800206C6070BD012070BD0000CF
:1012A00024000020300000200A4808B5016841F4FD
:1012B00080410160006800F4804000900548001FF4
:1012C000016841F080510160006800F0805000909A
:1012D00008BD000044380240002809DB00F01F026E
:1012E000012191404009800000F1E020C0F8001188
:1012F00070470000F0B40E4B1B680C46C3F302238A
:10130000C3F10705042D00D90425191D072901D2B1
:10131000002300E0DB1E012606FA05F1491E2140EC
:1013200099409E40761E16403143F0BC01F04CBA05
:101330000CED00E0064900F0070208684FF6FF03D5
:10134000184040EA0220034A10430860704700003A
:101350000CED00E00000FA052DE9F0470E4605000F
:1013600065D0DFF81481D8F80000F7B200F007006C
:10137000B04207D288F80070D8F8000000F00700EB
:10138000B04254D128683D4C810712D5400703D59F
:10139000206840F4E05020602878000703D52068DA
:1013A00040F4604020602068A96820F0F000084305
:1013B00020602878C0072DD0304968680839012896
:1013C00012D0022813D0032811D0096889070029F8
:1013D0002DDA216821F0030101432160FFF71CFF92
:1013E000814641F2883A0EE009688903EFE709680F
:1013F0008901ECE7FFF710FFA0EB0901514502D985
:101400000320BDE8F0872068696800F00C00B0EBAD
:10141000810FEFD1D8F80010404601F00701B1422A
:1014200007D90770006800F00700B04201D0012022
:10143000E7E72878400705D52068E96820F4E05000
:10144000084320602878000706D52068296920F421
:10145000604040EAC100206000F038F82168084A86
:10146000C1F30311515CC840064908600648006892
:10147000FFF7FAFE0020C4E7003C024008380240B3
:10148000C43400083000002028000020044805492A
:1014900000680968044AC1F38221515CC840704762
:1014A0003000002008380240D434000804480549C0
:1014B00000680968044AC1F34231515CC840704772
:1014C0003000002008380240D4340008154810B518
:1014D000006810F00C02144813D01449042A0FD0ED
:1014E000082A0ED10F4C241F2268236802F03F0205
:1014F0005B0207D52068C0F38810A0FB010106E05D
:10150000084610BD2168C1F38811A1FB000100232A
:10151000FEF7C6FE2168C1F30141491C4900B0FB3A
:10152000F1F010BD083802400024F400001BB700A1
:101530002DE9F84F04006ED02078DFF84C93C007F7
:10154000A9F104054AD009F104000168C1F3810141
:10155000012908D00068C0F3810002280AD1D9F817
:101560000000400206D52868800337D5606800284F
:10157000E1D033E06068B0F5803F10D0B0F5A02F27
:10158000286810D020F480302860286820F480205B
:1015900028606068A8B1FFF73FFE06460DE02868A6
:1015A00040F48030F4E740F480202860F7E700BF83
:1015B000FFF732FE801B642873D828688003F7D5B4
:1015C0000CE0FFF729FE064605E000BFFFF724FE0A
:1015D000801B6428F0D828688003F7D42078DFF8CF
:1015E000AC8280074FF0000A3ED5A748001D016875
:1015F00011F00C0F08D00068C0F3810002280BD155
:10160000D9F80000400207D42868800716D5E068A2
:10161000012800D112E033E1E068B8B10120C8F838
:101620000000FFF7F9FD064605E000BFFFF7F4FDF7
:10163000801B0228C0D828688007F7D52868216950
:1016400020F0F80040EAC10028600DE0C8F800A0D2
:10165000FFF7E2FD064604E0FFF7DEFD801B0228EF
:101660001FD828688007F7D42078000722D5864F36
:1016700087486169703771B101210160FFF7CCFDC6
:10168000064604E0FFF7C8FD801B022809D8386829
:101690008007F7D50EE0C0F800A0FFF7BDFD0646B5
:1016A00005E082E0FFF7B8FD801B02287DD838688E
:1016B0008007F7D42078400768D5DFF8CCB1002741
:1016C0000BF13C0BDBF80000C0000BD4DBF8001082
:1016D00041F08051CBF80010DBF80000012700F04A
:1016E000805000906B4E3068C00510D4306840F4D4
:1016F00080703060FFF790FD009005E0FFF78CFDF3
:101700000099401A022850D83068C005F6D55E4EC0
:10171000A0686C3601280FD00528306810D020F062
:1017200001003060306820F004003060A068B8B17B
:10173000FFF772FD00900FE0306840F00100F4E721
:1017400040F004003060F7E7FFF766FD0099411AAA
:1017500041F28830814266D830688007F4D50EE0C7
:10176000FFF75AFD009007E0FFF756FD0099411A78
:1017700041F28830814256D830688007F4D42FB1C6
:10178000DBF8001021F08051CBF80010A069C8B33D
:101790003D49091D0968C1F3810102294AD0022887
:1017A000504607D0C8F8600000E03CE0FFF734FD89
:1017B00004463BE04746C8F86000FFF72DFD0646AB
:1017C00005E000BFFFF728FD801B02282BD8286802
:1017D0008001F7D4D4E907010843A16A2E4A4908D9
:1017E00002EB0141626A41EA8211084394F82C102D
:1017F00040EA0161C9F8001001203866FFF70CFDCE
:10180000044606E03EE000BFFFF706FD001B02288D
:1018100009D828688001F7D534E000BFFFF7FCFC49
:10182000001B022802D90320BDE8F88F2868800138
:10183000F4D427E00128F7D0D9F80000E26900F4D9
:10184000800191421CD1226A00F03F01914217D1E0
:1018500047F6C071626A0140B1EB821F10D1A26AE3
:101860004FF0FF3300F4403103EB5202B1EB024F73
:1018700006D194F82C1000F07060B0EB016F01D02D
:101880000120D1E70020CFE70438024000004742A2
:10189000800E4742007000400000FFFF10B5401E60
:1018A000B0F1807F01D3012010BD4FF0E0246061D2
:1018B0000F21601700F088FF0020A0610720206141
:1018C000002010BD7047704770B590F83C20012A89
:1018D00032D0012480F83C40022280F83D20036889
:1018E0005A689D6822F070060A6832435A60134BAA
:1018F00002689A4214D0B2F1804F11D0104B9A4234
:101900000ED0104B9A420BD00F4B9A4208D00F4B7F
:101910009A4205D00E4B9A4202D00E4B9A4204D105
:10192000496825F080031943916080F83D4000210B
:1019300080F83C10084670BD022070BD00000140D8
:101940000004004000080040000C0040000401407A
:10195000004001400018004010B5040003D094F886
:101960003D0010B107E0012010BD002084F83C00CC
:10197000204600F01FF8022084F83D00211D206859
:1019800000F0FCFC012084F8460084F83E0084F856
:101990003F0084F8400084F8410084F8420084F855
:1019A000430084F8440084F8450084F83D0000209A
:1019B00010BD000008B500680B49884212D10B48E1
:1019C000016841F0010101600068002200F001009F
:1019D000009011461920FFF78DFCBDE80840192042
:1019E000FFF77ABC08BD0000000001404438024007
:1019F00090F83D10012901D001207047022180F8A4
:101A00003D100168CA6842F00102CA6000681149CD
:101A1000884214D0B0F1804F11D00F4988420ED0C7
:101A20000E4988420BD00E49884208D00D498842A1
:101A300005D00D49884202D00C49884204D1816802
:101A400001F00701062903D0016841F0010101609E
:101A500000207047000001400004004000080040E2
:101A6000000C00400004014000400140001800400C
:101A700070B5044690F83C000025012817D00126D7
:101A800084F83C60022084F83D002068826822F0DF
:101A9000770222F47F4282600868502838D00DDC3B
:101AA00020284FD005DC90B3102811D14AE0022045
:101AB00070BD302846D040280AD13BE060282FD0A6
:101AC00070280DD0B0F5805F03D0B0F5005F12D064
:101AD000012584F83D60002084F83C00284670BD54
:101AE000CB68D1E90121206800F0ACFC2068816856
:101AF00041F0770109E0CB68D1E90121206800F0CD
:101B0000A1FC2068816841F480418160E1E719E02F
:101B1000CA684968206800F0A7FC5021206806E0E8
:101B2000CA684968206800F0B0FC6021206800F0B5
:101B300093FCCEE7CA684968206800F095FC402114
:101B40002068F4E7226801461046F0E7704770B558
:101B50000446006801694FF00005C943890715D4A0
:101B6000C168C943890711D4E91E016101202077AA
:101B7000206880698007204602D0FFF7E7FF04E075
:101B800000F098F8204600F096F825772068016963
:101B9000C943490717D4C168C943490713D46FF033
:101BA00004010161022020772068806910F4407FE1
:101BB000204602D0FFF7CAFF04E000F07BF8204681
:101BC00000F079F8257720680169C943090716D420
:101BD000C168C943090712D46FF0080101610420EC
:101BE00020772068C0698007204602D0FFF7AEFF4B
:101BF00004E000F05FF8204600F05DF825772068EB
:101C00000169C943C90617D4C168C943C90613D4B9
:101C10006FF010010161082020772068C06910F47E
:101C2000407F204602D0FFF791FF04E000F042F829
:101C3000204600F040F8257720680169C943C907AC
:101C400008D1C168C943C90704D1891E0161204672
:101C500000F032F820680169C943090609D4C16857
:101C6000C943090605D46FF0800101612046FFF7E2
:101C700029FE20680169C943490609D4C168C943DE
:101C8000490605D46FF040010161204600F020F8BC
:101C900020680169C94389060BD4C168C943890614
:101CA00007D46FF0200101612046BDE87040FFF7C6
:101CB0000ABE70BD704770470349884203D103488C
:101CC000C169491CC1617047E0010020000000208B
:101CD00070477047704770B5040004D094F83D0019
:101CE000002510B106E0012070BD84F83C5020466C
:101CF00000F022F8242084F83D002068C16821F417
:101D00000051C160204600F07BFC2068016921F48D
:101D1000904101612068416921F02A0141612068F8
:101D2000C16841F40051C1602564202084F83D0061
:101D300084F83E00002070BD2DE9F04F87B00646C4
:101D400014216846FEF742FB454B316800244548A4
:101D50000225032207274FF000694FF4806A4FF4F1
:101D6000403B994243D13F4914310B6843F0100383
:101D70000B60096801F010010591016841F0020152
:101D80000160016801F002010591016841F0010163
:101D900001600068CDE9024200F00100059080205A
:101DA000CDE900059046694604972F48FFF73CF9B6
:101DB0002802CDE90005CDE90248694604972B4881
:101DC000FFF732F92B4D2A48E5E802094020A5E843
:101DD0001104284845F81449AC61C5E9074B6C6209
:101DE000FFF76EF808B1FEF7EEFB756334E0224BA7
:101DF000994232D11B4910310B6843F480230B60A8
:101E0000096801F480210591016841F00401016035
:101E10000068CDE9024200F0040005904FF44060F4
:101E2000CDE90005694604971448FFF7FDF8114D08
:101E3000134860352860C5E90194C5E9034A801557
:101E40006C61C5E90640C5E908B42846FFF738F8D3
:101E500008B1FEF7B8FBB563AE6307B0BDE8F08F1D
:101E600000100140303802400004024000000240EF
:101E7000B8640240B0020020004800400008024060
:101E80002860024090F83E30202B0ED159B152B15B
:101E900090F83C30012B08D0012380F83C3000231F
:101EA000036300F033BC012070470220704700003C
:101EB000F0B51E494B788C78DB0843EA4413CD78A3
:101EC000A40944EA85040D794E7944EA85240888FA
:101ED0006D08C0F30A0245EAC615A1F11400C6F365
:101EE00001170772B6094672CE8846810E8986812F
:101EF0004E89C6810E7B06744E7B4674C989C3F336
:101F00000A034182A2F58062C4F30A040280A3F5A9
:101F10008063C5F30A054380A4F580648480A5F539
:101F20008065C58002488260F0BD0000540000203A
:101F3000000000207047FEE70F4810B50D49016012
:101F40000321416000214FF410228160C0E9031297
:101F50004FF400124261017641768176C1760177B5
:101F60004177FEF7ACFD002803D0BDE81040FEF736
:101F70002ABB10BD00640040B8010020114808B51C
:101F8000016841F480010160016801F48001009161
:101F9000016841F4001101600068002200F40010A3
:101FA000009011460C20FFF7A5F90C20FFF794F9DB
:101FB000002211464620FFF79DF9BDE80840462063
:101FC000FFF78AB930380240154808B5016841F07A
:101FD00001010160016801F001010091016841F017
:101FE00002010160016801F002010091016841F005
:101FF00008010160016801F008010091016841F0E9
:1020000004010160016801F004010091016841F0E0
:1020100080010160006800F08000009008BD0000B1
:102020003038024010B586B000241848009401945E
:1020300002940394049414490594016048F23F31DA
:10204000C0E9011441F28731C0E90314446184619D
:10205000FFF782FC08B1FEF7B6FA4FF4805000900B
:1020600069460A48FFF704FD08B1FEF7ACFA04948C
:1020700004A906480594FFF727FC002801D0FEF7C5
:10208000A2FA06B010BD000000000140E0010020EF
:102090000C4810B50A4901604FF4E131416000215C
:1020A00081600C22C160C0E904128161C161FFF747
:1020B00012FE002803D0BDE81040FEF784BA10BD20
:1020C00000100140280200200D4810B50B490160A6
:1020D0000C49416000214FF480628160C0E9031225
:1020E0000C22C0E90521C161FFF7F5FD002803D0EE
:1020F000BDE81040FEF767BA10BD00000048004080
:102100006C020020A0860100FEE7FEE7A0B1D0ED42
:10211000121AC0ED131A90ED111A80ED121AC0EDCB
:10212000080A80ED090A30EEC00A80ED110A017834
:1021300029B1012951D08EE09FED480A7047D0EDBA
:10214000070AD0ED0B1AB7EE002AD0ED012A60EE97
:10215000A11A72EE600A60EEA20A40EE801AC0ED8B
:102160000B1AD0ED0C0AD0ED022A42EE800A30EEB6
:10217000410AC0ED0C0AD0ED0F2AC0ED102AD0EDB7
:102180000E2AC0ED0F2A80ED0E0AD0ED062A90ED42
:102190000D1A32EE622A22EE811AD0ED032A22EEC7
:1021A000222A02EE001A80ED0D1A90ED050AF4EED7
:1021B000C00AF1EE10FA09DCB1EE400AF4EEC00AF2
:1021C000F1EE10FA02D390ED0C0A01E080ED0C0A5A
:1021D00031EE800A30EE010A2BE070EE410A90EDFC
:1021E000012A60EE820AC0ED0B0A90ED022A22EE6F
:1021F000002A80ED0C2AD0ED0F2A70EE820AC0ED85
:10220000102AD0ED0E2AC0ED0F2AF0EE002A01EEC2
:10221000620A30EE210A80ED0E0A90ED031A21EEDB
:10222000000A80ED0D0A30EE800AD0ED0A0A30EE89
:10223000200A80ED0A0AD0ED040AB4EEE00AF1EEBD
:1022400010FA06DCF1EE600AB4EEE00AF1EE10FAE4
:1022500001D2C0ED0A0A90ED0A0A704700000000A2
:1022600000282CD0002A2AD0017092ED001A80EDAF
:10227000011A92ED011A80ED021A92ED021A80ED18
:10228000031A80ED040A9FED0E0AC0ED050A80EDE9
:10229000100A80ED0F0A80ED0E0A80ED0A0A80ED2B
:1022A0000D0A80ED0C0A80ED0B0A80ED130A80ED1B
:1022B000120A80ED110A80ED060A80ED070A7047C8
:1022C0000000000070477047FEF7ACBF30B593B018
:1022D00030216846FEF77AF814210CA8FEF776F84C
:1022E0001D480025016841F080510160006800F040
:1022F000805011901948016841F4804101600068E4
:10230000022400F48040119001200090000401900C
:102310008001CDE9064006200890A820CDE90904F7
:1023200004200B906846FFF703F908B172B6FEE788
:102330000CA90F2081E831004FF4A0500F904FF40A
:102340008050109005210CA8FFF706F8002801D056
:1023500072B6FEE713B030BD403802400070004056
:102360000248016841F470010160704788ED00E0A7
:102370000148FFF7ECBB0000E0010020F0B5026867
:10238000254C264D264E274F274B4FF0804CA04220
:1023900009D0604507D0A84205D0B04203D0B8426A
:1023A00001D0984204D122F0700E4A6842EA0E022F
:1023B000A0421BD0604519D0A84217D0B04215D01A
:1023C000B84213D0984211D0184DA8420ED0184DE3
:1023D000A8420BD0174DA84208D0174DA84205D0EF
:1023E000164DA84202D0164DA84203D122F44075E2
:1023F000CA682A434D6922F080022A4302608A6833
:10240000C2620A688262A04201D0984201D1096981
:10241000016301214161F0BD000001400004004062
:1024200000080040000C0040000401400040014052
:10243000004401400048014000180040001C0040DA
:102440000020004010B5846842EA032224F47F444F
:102450000A432243826010BD826822F070020A4360
:1024600042F007018160704710B5036A046A24F0E6
:1024700001040462846924F0F00444EA021423F0A5
:102480000A020A438461026210BD10B5036A23F098
:10249000100303628369046A23F4704343EA02323F
:1024A00024F0A00343EA01118261016210BD70B5FE
:1024B000846B2068406994F83D10C0F3C01000257B
:1024C000212904D118B1E584204600F08AF820685B
:1024D000406994F83E10C0F38010222904D118B14D
:1024E000E585204600F056F8206C40F0100020648E
:1024F0002046FFF7EFFB70BD10B50146806B096801
:102500000968C9052FD40021C18501680C3151E843
:10251000002F22F4807241E80023002BF5D10168DE
:10252000143151E8002F22F0010241E80023002B72
:10253000F5D10168143151E8002F22F0400241E842
:102540000023002BF5D1202180F83E10016B0129DA
:1025500009D101680C3151E8002F22F0100241E846
:102560000023002BF5D1016B012902D0FFF7A0FC5D
:1025700010BD818DFFF7ADFB10BD10B5806B016BF9
:10258000012902D0FFF7D6FC10BD818D4908FFF765
:10259000A0FB10BD01680C3151E8002F22F49072AD
:1025A00041E80023002BF5D10168143151E8002FD8
:1025B00022F0010241E80023002BF5D1016B012933
:1025C00009D101680C3151E8002F22F0100241E8D6
:1025D0000023002BF5D1202180F83E10002101635B
:1025E000704701680C3151E8002F22F0C00241E829
:1025F0000023002BF5D1202180F83D10704700000A
:1026000070B5044600680169E26821F44051114345
:1026100001612169A068E2690843616911430843C7
:102620002168CA6849F20C639A430243CA60206871
:102630004169A26921F44071114341613149206827
:10264000884202D03049884202D1FEF72FFF01E0D4
:10265000FEF71CFFE2690023192164253226B2F53A
:10266000004F626828D0A0FB0101930F9200FDF794
:1026700017FE0146B0FBF5F06FF01802504301EB76
:10268000800006EB0010B0FBF5F000F0F002B1FBAB
:10269000F5F002EB0012B1FBF5F06FF018035843B0
:1026A00001EB800006EB0010B0FBF5F000F00F002E
:1026B00021681044886070BDA0FB010192185B4145
:1026C000FDF7EEFD0146B0FBF5F00201B1FBF5F0C0
:1026D0006FF01803584301EB800006EBC000B0FB1D
:1026E000F5F000F0F80002EB4002B1FBF5F05843C2
:1026F00001EB800006EBC000B0FBF5F000F0070036
:10270000D6E70000001001400014014038B5816296
:1027100082850025134604460564222084F83E0085
:10272000A26B1C48D063A26B1B481064A26B1B48B1
:10273000D064A06B0A4605652168A06B091DFEF7F1
:1027400029FC206801684068009084F83C502069AA
:1027500048B120680C3050E8001F41F4807140E817
:102760000012002AF5D12068143050E8001F41F013
:10277000010140E80012002AF5D12068143050E829
:10278000001F41F0400140E80012002AF5D100206E
:1027900038BD0000F92400087B250008AF2400089C
:1027A000FEE74100080218BF04200A0E18BF40F0DF
:1027B00001004FF07F4232EA010108BF40F0020001
:1027C000012808BF052070470907090E002804DB0F
:1027D00000F1E02080F80014704700F00F0000F1D5
:1027E000E02080F8141D704700B510EE101A2DED92
:1027F000028B81B0524A6846B2EB410F2ED94FF09E
:10280000E640B0EB410F94BF00204FF0FF30009046
:102810000098B0EE408A00286ADB10F0010F4BD020
:1028200068EE080A9FED471A9FED470A00EE810AFD
:102830009FED461A10F0020F00EE801AB7EE000A64
:1028400000EE810A02BF01B0BDEC028B00BD00BFEB
:1028500001B0B1EE400ABDEC028B00BD3C4B21F053
:102860000042934241D911F0004FDFED3A0A20EEC9
:10287000201ADFED390A19BF31EE601A71EE200A15
:1028800031EE201A71EE600ABDEEE01A11EE100A68
:102890009FED321A00F0030000EEC10A9FED301ADE
:1028A000009000EEC10A9FED2F1A00EEC10A9FEDC5
:1028B0002E1A00EEC10AABE728EE080A9FED2B1A8C
:1028C000DFED2B0A10F0020F40EE410A9FED291AAE
:1028D00000EE201A61EE000AB0EE480A08EE200A67
:1028E000B6D101B0BDEC028B00BD00F059F88FE706
:1028F00018EE100A4000B0F17F4F0DD218EE100A0A
:10290000FFF74FFF042808BF00F042F8B0EE480A76
:1029100001B0BDEC028B00BD09D10120FDF785FDA2
:1029200001B0BDEC028B5DF804EB00F029B801B0FA
:10293000B0EE480ABDEC028B5DF804EB00F01CB869
:10294000B61F927EB93AB2BACA9F2A3DDDFFFFBEDA
:10295000490E494683F9223F0000004B0000C93F61
:1029600000A0FD390020A2331A61342C336D4C399C
:10297000DA82083CA0AA2ABE30EE000A70470000A6
:10298000DFED020A80EEA00A7047000000000000A0
:102990009FED020A20EE000A7047000000000010C0
:1029A0002DE9F0014FF07F42B2EB410F9FBF4FF096
:1029B000FF310160BDE8F00170474FF0004242EA8C
:1029C0000123C1F3C752783A551112F01F0C434C42
:1029D000CCF120067C44C1F3C752A2F178024FEA41
:1029E000621204EB820254F8254008BFD2E9015676
:1029F00012D0556804FA0CF425FA06F73C439768A0
:102A000005FA0CF527FA06F8D26807FA0CFCF24032
:102A100045EA08054CEA0206A4FB034CA5FB035259
:102A2000A6FB03631D449D4234BF012600261319F3
:102A3000334416B1934202D903E0934201D20122FA
:102A400000E00022624402F1200C9206DC0C42EA13
:102A5000443200EE102A5B03DFED210AF8EEC01AC3
:102A600000EE103A4FEA9C1C11F0004FB8EE400AFD
:102A7000C0F800C020EE201A00EE105ADFED190A4F
:102A8000B8EE400A20EE200A71EE810A70EE800A4C
:102A900010EE902A02F500626FF30B0200EE902A0E
:102AA00070EEE11A31EEC11ADFED101A30EE411A64
:102AB0009FED0D0A20EE800A01EE210A9FED0C1A0F
:102AC00000EE810A04BFBDE8F0017047CCF18051EF
:102AD0000160BDE8F001B1EE400A7047040B000050
:102AE000000000360000802C22AAFD29DB0FC92F30
:102AF0000000C92F00B58BB000200121CDE90601EF
:102B0000089100900190029003900590049069460E
:102B10000548FDF7DBFD0448FEF7CEF80221024828
:102B2000FDF753FD0BB000BDB801002000F003001D
:102B3000024900EB800001EB400070477003002069
:102B40002DED088BFEF776FBFFF7C0FBFFF73CFA95
:102B5000FFF714FAFFF7F0F9FFF79AFAFFF7B4FA64
:102B6000FFF760FA8248FEF743FFFFF7C3FF122228
:102B700080498148FFF786F9804C00209FED80AAAC
:102B8000DFED808ADFED809A9FED809A9FED808A4D
:102B9000804EE060A6F5A075207BFFF7C7FFE168D7
:102BA000F0EE4A0AB0EE680A46F8210001EB810017
:102BB00005EB0010784A0021FFF752FBE06800EBBC
:102BC000800105EB0111401CC1ED069A81ED079AC9
:102BD00081ED0A8AE0600428DEDBFDF727FB6FF059
:102BE000004790FBF7F000F0DBF99FED6C0B53EC26
:102BF000102B00F0EDF99FED6B1B53EC112B00F047
:102C000027F900F0F3F8206100F0D6FB9FED670B89
:102C100053EC102B00F0DAFA00F0E8F86061FDF7F1
:102C200005FB90FBF7F000F0BBF99FED621B53EC46
:102C3000112B00F0CDF99FED611B53EC112B00F02F
:102C400007F900F0D3F8DFF87C819FED5F9B9FEDE3
:102C500060AB484F143F9FED60BB05F1A009A06138
:102C60006068404506DC5E49884203D8207880F0E1
:102C700001002070387A032802D0012806D008E02D
:102C8000797A022905D19FED570A1FE0797A022946
:102C900005D0797A032915D001291AD01BE094EDCB
:102CA000070AD4ED060AB8EEC00A20EE800AFFF744
:102CB0009BFDD4ED050A94ED041A41EE000A10EED6
:102CC000900A47E0022806D19FED470A84ED010AE9
:102CD00003E002282AD084ED018A606800F06CFBD2
:102CE00053EC1B2B00F074F900F080F800EE900A12
:102CF000C4ED010AB068B0F9020000EE100A4846BF
:102D0000B8EEC00AFFF702FA95ED320A002384ED0F
:102D1000080ABDEEC00A194610EE100A02B21846A3
:102D2000FDF7CEFB0220FEF76DF999E794ED070A57
:102D3000D4ED060AB8EEC00A20EE800AFFF754FD73
:102D4000D4ED050A94ED041A41EE000AB1EE600AD2
:102D500010EE100A00F030FB53EC192B00F038F99C
:102D600053EC1A2B00F034F900F040F86060B4E73F
:102D7000E0010020540000206C0200200000002030
:102D80000000FA4400606A46B9FC7F3F43737D3F10
:102D900000000000A8010020B0340008F6285C8F75
:102DA000C2F5D03FF6285C8FC2F5E83FB81E85EB30
:102DB00051B800401904560E2DB2BD3FBE9F1A2FC8
:102DC000DD24FE3F0000A0437B14AE47E13A2340E0
:102DD0008716D9CEF73343405C8FC2F5285CF53FA8
:102DE0000000A0C30000C0430000C0C321F00042A7
:102DF000A2F16052B2F5801F01F0004328BFD2F16A
:102E00007F6C0BD95FEA001C43EAC20242EB5070B0
:102E100018BF704728BF20F001007047B2F5801F2F
:102E2000BCBF184670474FEA410C1CF5001F02D288
:102E3000084600F037BB70B500F074F90000008957
:102E4000FFF7F6BF4FF00040A0F58000704700008C
:102E500010B591EA030F48BF83F0004300F1CA8127
:102E6000841A71EB030C05D2121943EB0C03001BFF
:102E700061EB0C01DFF824E14FEA1154A4EB135C81
:102E80001EEA430F18BF9EEA445F73D023EA0E0385
:102E9000DCF1200E21EA045143F4801332D322FAEC
:102EA0000CFE10EB0E0023FA0CFE41EB0E01CCF1F0
:102EB000200E03FA0EFE10EB0E0051F10001B1F5E9
:102EC000801FCCF1200E32D201EB045112FA0EF227
:102ED000BDE8104058BF7047401C38BF5FEA42024F
:102EE00018BF7047002814BF20F0010041F1000115
:102EF0004FEA410313F5001F38BF7047A1F1C041ED
:102F000000F05EB9012A43EB0302ACF1200CDCF1C6
:102F10001F0E32BF4FF0000E23FA0CF310EB03002C
:102F200041EB0451B4EB115FD0D0A1EB045101F59A
:102F3000801149085FEA300001EB04510ED350F1D3
:102F4000000038BF12FA0EFE08D1BDE81040C9E7F4
:102F5000401C38BF5FEA4202CAD1C3E7BDE8104057
:102F60004FEA410313F5001F38BF7047A1F1C0417C
:102F700000F026B99EEA445F08D011EA5E0FBDE872
:102F8000104004BF01F0004100207047BDE8104030
:102F900070B500F0C7F800BF64FBBE3E0000E0FF64
:102FA00010F0004248BF4042B0FA80F310FA03F13B
:102FB0000AD0C3F11D0303F580634FEA415002EBD1
:102FC000035202EBD12170474FF000007047000020
:102FD000DFF848C170B51CEA111E1EBF1CEA1315AC
:102FE0009EEA0C0F95EA0C0F00F06F8081EA030453
:102FF00023EA4C134EEAD47E21EA4C1141F48011AD
:1030000043F48013AE44A1FB024CA0FB0365AEF178
:103010007F7E361955EB0C05A1FB034C4CF10003E8
:10302000A0FB021C16EB0C06654153F1000309429C
:1030300018BF46F0010613F4007F0BD14FEA0331AD
:103040004FEA0530340341EA155140EA16506FF05B
:1030500003020AE04FEAC3214FEAC520F40241EA25
:10306000555140EA56506FF0020202EB2E4201EB3E
:10307000025585EACE710AD05FEA440C18BF24F0ED
:10308000004450F1000041F1000120EAD47040F208
:10309000FE7C624500D270BDA84214BF4FF0804450
:1030A0004FF04044002E08BF0024BEF1806FA8BF3F
:1030B000A1F1C041BDE8704080F282804FF0000075
:1030C00001F1C04101F0004170479EEA0C0F0CEA8B
:1030D000131518BF95EA0C0F06D04FF0000081EAD7
:1030E000030E0EF0004170BD00F01CF88900013E97
:1030F00000F007B800F009B84FEA430C5FEA5C5CE7
:1031000008D081EA030100F05BB84FEA410C5FEAA6
:103110005C5CF6D14FF00000014970470000FF07EA
:103120000000F87F0EF1020E2EF0030E5EF8046B25
:10313000364205D4012A43EB030515F5001F12D8CA
:10314000012841EB010C1CF5001F0CD80ED14FEAF1
:10315000D17C15F5001F0CEB4C0C0CF1020C08BFD8
:103160004CEBD37C04E04FF0080C01E04FEAD37C39
:103170000CEB4C0526FA05F606F00706B6F1040C32
:1031800006D20EEB860CBDE870404CF0010C604797
:10319000DFE80CF0090B02024FF000414FF0000095
:1031A000A1F5002170BD19461046012851EB01041C
:1031B00018BFD4F5001484BF002001F0004170BD99
:1031C0000808A0F500114FEA3101704791EA030F9A
:1031D00010B581F000413FF543AE83F0004300F0AD
:1031E00009B8000010B591EA030F48BF83F000430F
:1031F0003FF536AE841A71EB030C07D212198CF02E
:10320000004C43EB0C03001B61EB0C01DFF8A4E165
:103210004FEA1154A4EB135C1EEA430F18BF9EEA59
:10322000445F00F0B08023EA6E03524221EA045169
:10323000C3EB6E0338BF5B1EDCF1200E25D322FAF0
:103240000CFE10EB0E0043FA0CFE41EB0E01CCF12C
:10325000200E03FA0EFE10EB0E0051F10001CCF12E
:10326000200E29D412FA0EF201EB0451BDE81040F1
:1032700058BF7047401C1CBFB2F1004F7047002878
:103280000CBF491C20F00100704712EB020E43EB0B
:10329000030218BF4FF0010E4EEA4202ACF1200CBF
:1032A000DCF11E0E54D943FA0CFE10EB0E0051F166
:1032B000FF31CCF11E0ED5D50EF1010E12FA0EFE25
:1032C000404141EB010101EB445C5FEA5C5C10D9D9
:1032D00010EBDE7001EB045138BFBEF1004FBDE8CA
:1032E000104018BF704700280CBF491C20F0010097
:1032F000704730D24FEAD42C11F5001124F4006449
:103300001BD0B1FA81F20B3AA41AA41ED2F1200309
:10331000914030FA03F31943904001EBCC71002C3B
:1033200001EB0451BDE81040A8BF704701F1C04156
:103330004FF0000001F000417047B0FA80F310FA3E
:1033400003F100D110BDE41A173C4805C90AE4E7AF
:1033500001EB045110BD491001EB0451BDE81040D0
:103360004FEA300002E04FF0000170474A0008BF0A
:103370000042F8D0B2F5001F28BF704701F00041AD
:103380004FF0000070479EEA445F07D011EA5E0FDD
:10339000BDE8104004BF002100207047BDE8104088
:1033A00070B5FFF7BFFE00BF40DFF63E83F000417F
:1033B000104670470000E0FF43004FEAD30C4FEA8D
:1033C0003C0C43401FBF40070CF1605113F0FE4F0F
:1033D00070471CF0006F03D100200CF000417047D3
:1033E0000CF0004343EA507010B540EACC0000F006
:1033F0000EF800BF000000924FEA0001FFF7E0BEA8
:103400004FF000414FF00000A1F5002170470EF190
:10341000020E2EF0030E5EF8044B244204D44FEA51
:103420004102B2F17F4F11D84FEA4003B3F17F4F11
:103430000CD80ED14FEAD07CB2F17F4F0CEB4C0C84
:103440000CF1020C08BF4CEBD17C04E04FF0080CEF
:1034500001E04FEAD17C0CEB4C0324FA03F404F0B6
:103460000704B4F1040C06D20EEB840CBDE8104046
:103470004CF0010C6047DFE80CF0070802024FF047
:103480000040A0F5800010BD0846420018BFD2F1F0
:10349000807288BF00F0004010BD4FF04070E1EE38
:1034A000100A7047FF2141EAD050C0057047000064
:1034B0000000484200000000000000400006101616
:1034C00000061016000000000000000001020304C6
:1034D00006070809000000000102030400000000C4
:1034E0006E83F9A22915444ED15727FCC0DD34F56F
:1034F000999562DB4190433CAB6351FE1C3500085B
:103500000000002040000000C40100085C350008F5
:1035100040000020D80A0000E0010008010000007F
:10352000000000000000000000000000000000009B
:10353000000000000000000000000000000000008B
:103540000100000010000000000000000024F40052
:0C3550000000000000000000000000006F
:040000050800018965
:00000001FF
